{
  "address": "0x764E4a1cb5C6Db0A2b4a456A33ADD76A9cff4661",
  "abi": [
    {
      "inputs": [
        {
          "internalType": "bytes",
          "name": "proofZero",
          "type": "bytes"
        },
        {
          "internalType": "bytes",
          "name": "publicKeyBytes",
          "type": "bytes"
        },
        {
          "internalType": "address",
          "name": "launchpadTokenId",
          "type": "address"
        },
        {
          "internalType": "uint256",
          "name": "launchpadTokensPerWinningTicket",
          "type": "uint256"
        },
        {
          "internalType": "address",
          "name": "ticketPaymentToken",
          "type": "address"
        },
        {
          "internalType": "uint256",
          "name": "ticketPrice",
          "type": "uint256"
        },
        {
          "internalType": "uint256",
          "name": "nrWinningTickets",
          "type": "uint256"
        },
        {
          "internalType": "uint256",
          "name": "confirmationPeriodStartTime",
          "type": "uint256"
        },
        {
          "internalType": "uint256",
          "name": "winnerSelectionStartTime",
          "type": "uint256"
        },
        {
          "internalType": "uint256",
          "name": "claimStartTime",
          "type": "uint256"
        }
      ],
      "stateMutability": "nonpayable",
      "type": "constructor"
    },
    {
      "inputs": [
        {
          "internalType": "address",
          "name": "sender",
          "type": "address"
        },
        {
          "internalType": "uint256",
          "name": "tokenId",
          "type": "uint256"
        },
        {
          "internalType": "address",
          "name": "owner",
          "type": "address"
        }
      ],
      "name": "ERC721IncorrectOwner",
      "type": "error"
    },
    {
      "inputs": [
        {
          "internalType": "address",
          "name": "operator",
          "type": "address"
        },
        {
          "internalType": "uint256",
          "name": "tokenId",
          "type": "uint256"
        }
      ],
      "name": "ERC721InsufficientApproval",
      "type": "error"
    },
    {
      "inputs": [
        {
          "internalType": "address",
          "name": "approver",
          "type": "address"
        }
      ],
      "name": "ERC721InvalidApprover",
      "type": "error"
    },
    {
      "inputs": [
        {
          "internalType": "address",
          "name": "operator",
          "type": "address"
        }
      ],
      "name": "ERC721InvalidOperator",
      "type": "error"
    },
    {
      "inputs": [
        {
          "internalType": "address",
          "name": "owner",
          "type": "address"
        }
      ],
      "name": "ERC721InvalidOwner",
      "type": "error"
    },
    {
      "inputs": [
        {
          "internalType": "address",
          "name": "receiver",
          "type": "address"
        }
      ],
      "name": "ERC721InvalidReceiver",
      "type": "error"
    },
    {
      "inputs": [
        {
          "internalType": "address",
          "name": "sender",
          "type": "address"
        }
      ],
      "name": "ERC721InvalidSender",
      "type": "error"
    },
    {
      "inputs": [
        {
          "internalType": "uint256",
          "name": "tokenId",
          "type": "uint256"
        }
      ],
      "name": "ERC721NonexistentToken",
      "type": "error"
    },
    {
      "inputs": [
        {
          "internalType": "address",
          "name": "owner",
          "type": "address"
        }
      ],
      "name": "OwnableInvalidOwner",
      "type": "error"
    },
    {
      "inputs": [
        {
          "internalType": "address",
          "name": "account",
          "type": "address"
        }
      ],
      "name": "OwnableUnauthorizedAccount",
      "type": "error"
    },
    {
      "anonymous": false,
      "inputs": [
        {
          "indexed": true,
          "internalType": "address",
          "name": "owner",
          "type": "address"
        },
        {
          "indexed": true,
          "internalType": "address",
          "name": "approved",
          "type": "address"
        },
        {
          "indexed": true,
          "internalType": "uint256",
          "name": "tokenId",
          "type": "uint256"
        }
      ],
      "name": "Approval",
      "type": "event"
    },
    {
      "anonymous": false,
      "inputs": [
        {
          "indexed": true,
          "internalType": "address",
          "name": "owner",
          "type": "address"
        },
        {
          "indexed": true,
          "internalType": "address",
          "name": "operator",
          "type": "address"
        },
        {
          "indexed": false,
          "internalType": "bool",
          "name": "approved",
          "type": "bool"
        }
      ],
      "name": "ApprovalForAll",
      "type": "event"
    },
    {
      "anonymous": false,
      "inputs": [
        {
          "indexed": false,
          "internalType": "uint256",
          "name": "startTime",
          "type": "uint256"
        }
      ],
      "name": "ClaimStartTimeSet",
      "type": "event"
    },
    {
      "anonymous": false,
      "inputs": [
        {
          "indexed": false,
          "internalType": "uint256",
          "name": "startTime",
          "type": "uint256"
        }
      ],
      "name": "ConfirmationPeriodStartTimeSet",
      "type": "event"
    },
    {
      "anonymous": false,
      "inputs": [
        {
          "indexed": false,
          "internalType": "uint256",
          "name": "tokenId",
          "type": "uint256"
        }
      ],
      "name": "CreatedNFT",
      "type": "event"
    },
    {
      "anonymous": false,
      "inputs": [
        {
          "indexed": false,
          "internalType": "address",
          "name": "token",
          "type": "address"
        }
      ],
      "name": "LaunchpadTokenSet",
      "type": "event"
    },
    {
      "anonymous": false,
      "inputs": [
        {
          "indexed": false,
          "internalType": "uint256",
          "name": "amount",
          "type": "uint256"
        },
        {
          "indexed": false,
          "internalType": "address",
          "name": "token",
          "type": "address"
        }
      ],
      "name": "LaunchpadTokensDeposited",
      "type": "event"
    },
    {
      "anonymous": false,
      "inputs": [
        {
          "indexed": false,
          "internalType": "uint256",
          "name": "amount",
          "type": "uint256"
        }
      ],
      "name": "LaunchpadTokensPerWinningTicketSet",
      "type": "event"
    },
    {
      "anonymous": false,
      "inputs": [
        {
          "indexed": true,
          "internalType": "address",
          "name": "previousOwner",
          "type": "address"
        },
        {
          "indexed": true,
          "internalType": "address",
          "name": "newOwner",
          "type": "address"
        }
      ],
      "name": "OwnershipTransferred",
      "type": "event"
    },
    {
      "anonymous": false,
      "inputs": [
        {
          "indexed": false,
          "internalType": "uint256",
          "name": "randomSeed",
          "type": "uint256"
        }
      ],
      "name": "ShufflerInitialized",
      "type": "event"
    },
    {
      "anonymous": false,
      "inputs": [
        {
          "indexed": false,
          "internalType": "uint256",
          "name": "claimedTicketPayment",
          "type": "uint256"
        },
        {
          "indexed": false,
          "internalType": "uint256",
          "name": "extraLaunchpadTokens",
          "type": "uint256"
        }
      ],
      "name": "TicketPaymentClaimed",
      "type": "event"
    },
    {
      "anonymous": false,
      "inputs": [
        {
          "indexed": false,
          "internalType": "uint256",
          "name": "amount",
          "type": "uint256"
        },
        {
          "indexed": false,
          "internalType": "address",
          "name": "token",
          "type": "address"
        }
      ],
      "name": "TicketPriceSet",
      "type": "event"
    },
    {
      "anonymous": false,
      "inputs": [
        {
          "indexed": false,
          "internalType": "address",
          "name": "token",
          "type": "address"
        }
      ],
      "name": "TicketTokenSet",
      "type": "event"
    },
    {
      "anonymous": false,
      "inputs": [
        {
          "indexed": false,
          "internalType": "uint256",
          "name": "uniqueAddressesAddedCount",
          "type": "uint256"
        }
      ],
      "name": "TicketsAdded",
      "type": "event"
    },
    {
      "anonymous": false,
      "inputs": [
        {
          "indexed": true,
          "internalType": "address",
          "name": "user",
          "type": "address"
        },
        {
          "indexed": false,
          "internalType": "uint256",
          "name": "ticketsConfirmed",
          "type": "uint256"
        }
      ],
      "name": "TicketsConfirmed",
      "type": "event"
    },
    {
      "anonymous": false,
      "inputs": [
        {
          "indexed": false,
          "internalType": "uint256",
          "name": "progress",
          "type": "uint256"
        },
        {
          "indexed": false,
          "internalType": "uint256",
          "name": "total",
          "type": "uint256"
        }
      ],
      "name": "TicketsFiltered",
      "type": "event"
    },
    {
      "anonymous": false,
      "inputs": [
        {
          "indexed": true,
          "internalType": "address",
          "name": "user",
          "type": "address"
        },
        {
          "indexed": false,
          "internalType": "uint256",
          "name": "redeemableTickets",
          "type": "uint256"
        },
        {
          "indexed": false,
          "internalType": "uint256",
          "name": "refundedTickets",
          "type": "uint256"
        }
      ],
      "name": "TokensClaimed",
      "type": "event"
    },
    {
      "anonymous": false,
      "inputs": [
        {
          "indexed": true,
          "internalType": "address",
          "name": "from",
          "type": "address"
        },
        {
          "indexed": true,
          "internalType": "address",
          "name": "to",
          "type": "address"
        },
        {
          "indexed": true,
          "internalType": "uint256",
          "name": "tokenId",
          "type": "uint256"
        }
      ],
      "name": "Transfer",
      "type": "event"
    },
    {
      "anonymous": false,
      "inputs": [
        {
          "indexed": false,
          "internalType": "address[]",
          "name": "users",
          "type": "address[]"
        }
      ],
      "name": "UsersBlacklisted",
      "type": "event"
    },
    {
      "anonymous": false,
      "inputs": [
        {
          "indexed": false,
          "internalType": "address[]",
          "name": "users",
          "type": "address[]"
        }
      ],
      "name": "UsersRemovedFromBlacklist",
      "type": "event"
    },
    {
      "anonymous": false,
      "inputs": [
        {
          "indexed": false,
          "internalType": "uint256",
          "name": "startTime",
          "type": "uint256"
        }
      ],
      "name": "WinnerSelectionStartTimeSet",
      "type": "event"
    },
    {
      "anonymous": false,
      "inputs": [
        {
          "indexed": false,
          "internalType": "uint256",
          "name": "progress",
          "type": "uint256"
        },
        {
          "indexed": false,
          "internalType": "uint256",
          "name": "total",
          "type": "uint256"
        }
      ],
      "name": "WinnersSelected",
      "type": "event"
    },
    {
      "inputs": [
        {
          "internalType": "address[]",
          "name": "buyers",
          "type": "address[]"
        },
        {
          "internalType": "uint256[]",
          "name": "confirmableTickets",
          "type": "uint256[]"
        },
        {
          "internalType": "uint256[]",
          "name": "guaranteedWinning",
          "type": "uint256[]"
        }
      ],
      "name": "addTickets",
      "outputs": [],
      "stateMutability": "nonpayable",
      "type": "function"
    },
    {
      "inputs": [
        {
          "internalType": "address[]",
          "name": "usersList",
          "type": "address[]"
        }
      ],
      "name": "addUsersToBlacklist",
      "outputs": [],
      "stateMutability": "nonpayable",
      "type": "function"
    },
    {
      "inputs": [
        {
          "internalType": "address",
          "name": "to",
          "type": "address"
        },
        {
          "internalType": "uint256",
          "name": "tokenId",
          "type": "uint256"
        }
      ],
      "name": "approve",
      "outputs": [],
      "stateMutability": "nonpayable",
      "type": "function"
    },
    {
      "inputs": [
        {
          "internalType": "address",
          "name": "owner",
          "type": "address"
        }
      ],
      "name": "balanceOf",
      "outputs": [
        {
          "internalType": "uint256",
          "name": "",
          "type": "uint256"
        }
      ],
      "stateMutability": "view",
      "type": "function"
    },
    {
      "inputs": [],
      "name": "claimLaunchpadTokens",
      "outputs": [],
      "stateMutability": "nonpayable",
      "type": "function"
    },
    {
      "inputs": [],
      "name": "claimNft",
      "outputs": [],
      "stateMutability": "nonpayable",
      "type": "function"
    },
    {
      "inputs": [],
      "name": "claimTicketPayment",
      "outputs": [],
      "stateMutability": "nonpayable",
      "type": "function"
    },
    {
      "inputs": [
        {
          "internalType": "uint256",
          "name": "nrTicketsToConfirm",
          "type": "uint256"
        }
      ],
      "name": "confirmTickets",
      "outputs": [],
      "stateMutability": "payable",
      "type": "function"
    },
    {
      "inputs": [
        {
          "internalType": "uint256",
          "name": "extraWinningTickets",
          "type": "uint256"
        }
      ],
      "name": "depositExtraLaunchpadTokens",
      "outputs": [],
      "stateMutability": "nonpayable",
      "type": "function"
    },
    {
      "inputs": [],
      "name": "depositInitialLaunchpadTokens",
      "outputs": [],
      "stateMutability": "nonpayable",
      "type": "function"
    },
    {
      "inputs": [
        {
          "internalType": "uint256",
          "name": "batchSize",
          "type": "uint256"
        }
      ],
      "name": "filterTickets",
      "outputs": [],
      "stateMutability": "nonpayable",
      "type": "function"
    },
    {
      "inputs": [],
      "name": "getAddTicketsPeriodEndTime",
      "outputs": [
        {
          "internalType": "uint256",
          "name": "",
          "type": "uint256"
        }
      ],
      "stateMutability": "view",
      "type": "function"
    },
    {
      "inputs": [
        {
          "internalType": "uint256",
          "name": "tokenId",
          "type": "uint256"
        }
      ],
      "name": "getApproved",
      "outputs": [
        {
          "internalType": "address",
          "name": "",
          "type": "address"
        }
      ],
      "stateMutability": "view",
      "type": "function"
    },
    {
      "inputs": [],
      "name": "getClaimStartTime",
      "outputs": [
        {
          "internalType": "uint256",
          "name": "",
          "type": "uint256"
        }
      ],
      "stateMutability": "view",
      "type": "function"
    },
    {
      "inputs": [],
      "name": "getClaimableTicketPayment",
      "outputs": [
        {
          "internalType": "uint256",
          "name": "",
          "type": "uint256"
        }
      ],
      "stateMutability": "view",
      "type": "function"
    },
    {
      "inputs": [],
      "name": "getLastTicketId",
      "outputs": [
        {
          "internalType": "uint256",
          "name": "",
          "type": "uint256"
        }
      ],
      "stateMutability": "view",
      "type": "function"
    },
    {
      "inputs": [],
      "name": "getLaunchStage",
      "outputs": [
        {
          "internalType": "enum LaunchStageModule.LaunchStage",
          "name": "",
          "type": "uint8"
        }
      ],
      "stateMutability": "view",
      "type": "function"
    },
    {
      "inputs": [],
      "name": "getLaunchpadStageFlags",
      "outputs": [
        {
          "components": [
            {
              "internalType": "bool",
              "name": "hasWinnerSelectionProcessStarted",
              "type": "bool"
            },
            {
              "internalType": "bool",
              "name": "wereTicketsFiltered",
              "type": "bool"
            },
            {
              "internalType": "bool",
              "name": "winnersSelected",
              "type": "bool"
            },
            {
              "internalType": "bool",
              "name": "launchpadNfts",
              "type": "bool"
            }
          ],
          "internalType": "struct LaunchpadStorage.Flags",
          "name": "",
          "type": "tuple"
        }
      ],
      "stateMutability": "view",
      "type": "function"
    },
    {
      "inputs": [],
      "name": "getLaunchpadTokenId",
      "outputs": [
        {
          "internalType": "address",
          "name": "",
          "type": "address"
        }
      ],
      "stateMutability": "view",
      "type": "function"
    },
    {
      "inputs": [],
      "name": "getLaunchpadTokensPerWinningTicket",
      "outputs": [
        {
          "internalType": "uint256",
          "name": "",
          "type": "uint256"
        }
      ],
      "stateMutability": "view",
      "type": "function"
    },
    {
      "inputs": [
        {
          "internalType": "address",
          "name": "owner",
          "type": "address"
        }
      ],
      "name": "getNftLaunchpadInfo",
      "outputs": [
        {
          "components": [
            {
              "internalType": "uint256",
              "name": "numberOfWinningTickets",
              "type": "uint256"
            }
          ],
          "internalType": "struct NFT.LaunchpadNftMetadata",
          "name": "",
          "type": "tuple"
        }
      ],
      "stateMutability": "view",
      "type": "function"
    },
    {
      "inputs": [
        {
          "internalType": "address",
          "name": "addr",
          "type": "address"
        }
      ],
      "name": "getNumberOfConfirmedTickets",
      "outputs": [
        {
          "internalType": "uint256",
          "name": "",
          "type": "uint256"
        }
      ],
      "stateMutability": "view",
      "type": "function"
    },
    {
      "inputs": [
        {
          "internalType": "address",
          "name": "addr",
          "type": "address"
        }
      ],
      "name": "getNumberOfWinningPerUser",
      "outputs": [
        {
          "internalType": "uint256",
          "name": "",
          "type": "uint256"
        }
      ],
      "stateMutability": "view",
      "type": "function"
    },
    {
      "inputs": [],
      "name": "getNumberOfWinningTickets",
      "outputs": [
        {
          "components": [
            {
              "internalType": "enum LaunchpadStorage.NumberOfWinningTicketsType",
              "name": "ticketType",
              "type": "uint8"
            },
            {
              "internalType": "uint256",
              "name": "value",
              "type": "uint256"
            }
          ],
          "internalType": "struct LaunchpadStorage.NumberOfWinningTickets",
          "name": "",
          "type": "tuple"
        }
      ],
      "stateMutability": "view",
      "type": "function"
    },
    {
      "inputs": [
        {
          "internalType": "address",
          "name": "user",
          "type": "address"
        }
      ],
      "name": "getNumberOfWinningTicketsForAddress",
      "outputs": [
        {
          "internalType": "uint256",
          "name": "",
          "type": "uint256"
        }
      ],
      "stateMutability": "view",
      "type": "function"
    },
    {
      "inputs": [],
      "name": "getShufflerSeed",
      "outputs": [
        {
          "internalType": "string",
          "name": "",
          "type": "string"
        }
      ],
      "stateMutability": "view",
      "type": "function"
    },
    {
      "inputs": [
        {
          "internalType": "uint256",
          "name": "ticketPos",
          "type": "uint256"
        }
      ],
      "name": "getTicketIdFromPos",
      "outputs": [
        {
          "internalType": "uint256",
          "name": "",
          "type": "uint256"
        }
      ],
      "stateMutability": "view",
      "type": "function"
    },
    {
      "inputs": [],
      "name": "getTicketPrice",
      "outputs": [
        {
          "internalType": "uint256",
          "name": "",
          "type": "uint256"
        }
      ],
      "stateMutability": "view",
      "type": "function"
    },
    {
      "inputs": [
        {
          "internalType": "address",
          "name": "addr",
          "type": "address"
        }
      ],
      "name": "getTicketRangeForAddress",
      "outputs": [
        {
          "components": [
            {
              "internalType": "uint256",
              "name": "firstId",
              "type": "uint256"
            },
            {
              "internalType": "uint256",
              "name": "lastId",
              "type": "uint256"
            },
            {
              "internalType": "uint256",
              "name": "guaranteedWinners",
              "type": "uint256"
            }
          ],
          "internalType": "struct LaunchpadStorage.TicketRange",
          "name": "",
          "type": "tuple"
        }
      ],
      "stateMutability": "view",
      "type": "function"
    },
    {
      "inputs": [],
      "name": "getTimeline",
      "outputs": [
        {
          "components": [
            {
              "internalType": "uint256",
              "name": "confirmationPeriodStartTime",
              "type": "uint256"
            },
            {
              "internalType": "uint256",
              "name": "winnerSelectionStartTime",
              "type": "uint256"
            },
            {
              "internalType": "uint256",
              "name": "claimStartTime",
              "type": "uint256"
            }
          ],
          "internalType": "struct LaunchpadStorage.Timeline",
          "name": "",
          "type": "tuple"
        }
      ],
      "stateMutability": "view",
      "type": "function"
    },
    {
      "inputs": [],
      "name": "getTokenCounter",
      "outputs": [
        {
          "internalType": "uint256",
          "name": "",
          "type": "uint256"
        }
      ],
      "stateMutability": "view",
      "type": "function"
    },
    {
      "inputs": [],
      "name": "getTotalConfirmedTickets",
      "outputs": [
        {
          "internalType": "uint256",
          "name": "",
          "type": "uint256"
        }
      ],
      "stateMutability": "view",
      "type": "function"
    },
    {
      "inputs": [],
      "name": "getTotalNumberOfTickets",
      "outputs": [
        {
          "internalType": "uint256",
          "name": "",
          "type": "uint256"
        }
      ],
      "stateMutability": "view",
      "type": "function"
    },
    {
      "inputs": [
        {
          "internalType": "address",
          "name": "addr",
          "type": "address"
        }
      ],
      "name": "getTotalNumberOfTicketsForAddress",
      "outputs": [
        {
          "internalType": "uint256",
          "name": "",
          "type": "uint256"
        }
      ],
      "stateMutability": "view",
      "type": "function"
    },
    {
      "inputs": [],
      "name": "getWinnerSelectionStartTime",
      "outputs": [
        {
          "internalType": "uint256",
          "name": "",
          "type": "uint256"
        }
      ],
      "stateMutability": "view",
      "type": "function"
    },
    {
      "inputs": [
        {
          "internalType": "address",
          "name": "user",
          "type": "address"
        }
      ],
      "name": "getWinningTicketIdsForAddress",
      "outputs": [
        {
          "internalType": "uint256[]",
          "name": "",
          "type": "uint256[]"
        }
      ],
      "stateMutability": "view",
      "type": "function"
    },
    {
      "inputs": [
        {
          "internalType": "address",
          "name": "user",
          "type": "address"
        }
      ],
      "name": "hasUserClaimed",
      "outputs": [
        {
          "internalType": "bool",
          "name": "",
          "type": "bool"
        }
      ],
      "stateMutability": "view",
      "type": "function"
    },
    {
      "inputs": [
        {
          "internalType": "bytes",
          "name": "proof_bytes",
          "type": "bytes"
        }
      ],
      "name": "initShuffler",
      "outputs": [],
      "stateMutability": "nonpayable",
      "type": "function"
    },
    {
      "inputs": [
        {
          "internalType": "address",
          "name": "owner",
          "type": "address"
        },
        {
          "internalType": "address",
          "name": "operator",
          "type": "address"
        }
      ],
      "name": "isApprovedForAll",
      "outputs": [
        {
          "internalType": "bool",
          "name": "",
          "type": "bool"
        }
      ],
      "stateMutability": "view",
      "type": "function"
    },
    {
      "inputs": [
        {
          "internalType": "address",
          "name": "user",
          "type": "address"
        }
      ],
      "name": "isUserBlacklisted",
      "outputs": [
        {
          "internalType": "bool",
          "name": "",
          "type": "bool"
        }
      ],
      "stateMutability": "view",
      "type": "function"
    },
    {
      "inputs": [
        {
          "internalType": "uint256",
          "name": "ticketId",
          "type": "uint256"
        }
      ],
      "name": "isWinningTicket",
      "outputs": [
        {
          "internalType": "bool",
          "name": "",
          "type": "bool"
        }
      ],
      "stateMutability": "view",
      "type": "function"
    },
    {
      "inputs": [],
      "name": "name",
      "outputs": [
        {
          "internalType": "string",
          "name": "",
          "type": "string"
        }
      ],
      "stateMutability": "view",
      "type": "function"
    },
    {
      "inputs": [],
      "name": "owner",
      "outputs": [
        {
          "internalType": "address",
          "name": "",
          "type": "address"
        }
      ],
      "stateMutability": "view",
      "type": "function"
    },
    {
      "inputs": [
        {
          "internalType": "uint256",
          "name": "tokenId",
          "type": "uint256"
        }
      ],
      "name": "ownerOf",
      "outputs": [
        {
          "internalType": "address",
          "name": "",
          "type": "address"
        }
      ],
      "stateMutability": "view",
      "type": "function"
    },
    {
      "inputs": [
        {
          "internalType": "address[]",
          "name": "usersList",
          "type": "address[]"
        }
      ],
      "name": "removeUsersFromBlacklist",
      "outputs": [],
      "stateMutability": "nonpayable",
      "type": "function"
    },
    {
      "inputs": [],
      "name": "renounceOwnership",
      "outputs": [],
      "stateMutability": "nonpayable",
      "type": "function"
    },
    {
      "inputs": [
        {
          "internalType": "address",
          "name": "from",
          "type": "address"
        },
        {
          "internalType": "address",
          "name": "to",
          "type": "address"
        },
        {
          "internalType": "uint256",
          "name": "tokenId",
          "type": "uint256"
        }
      ],
      "name": "safeTransferFrom",
      "outputs": [],
      "stateMutability": "nonpayable",
      "type": "function"
    },
    {
      "inputs": [
        {
          "internalType": "address",
          "name": "from",
          "type": "address"
        },
        {
          "internalType": "address",
          "name": "to",
          "type": "address"
        },
        {
          "internalType": "uint256",
          "name": "tokenId",
          "type": "uint256"
        },
        {
          "internalType": "bytes",
          "name": "data",
          "type": "bytes"
        }
      ],
      "name": "safeTransferFrom",
      "outputs": [],
      "stateMutability": "nonpayable",
      "type": "function"
    },
    {
      "inputs": [
        {
          "internalType": "uint256",
          "name": "batchSize",
          "type": "uint256"
        }
      ],
      "name": "selectWinners",
      "outputs": [],
      "stateMutability": "nonpayable",
      "type": "function"
    },
    {
      "inputs": [
        {
          "internalType": "address",
          "name": "operator",
          "type": "address"
        },
        {
          "internalType": "bool",
          "name": "approved",
          "type": "bool"
        }
      ],
      "name": "setApprovalForAll",
      "outputs": [],
      "stateMutability": "nonpayable",
      "type": "function"
    },
    {
      "inputs": [
        {
          "internalType": "uint256",
          "name": "newStartTime",
          "type": "uint256"
        }
      ],
      "name": "setClaimStartTime",
      "outputs": [],
      "stateMutability": "nonpayable",
      "type": "function"
    },
    {
      "inputs": [
        {
          "internalType": "uint256",
          "name": "newStartTime",
          "type": "uint256"
        }
      ],
      "name": "setConfirmationPeriodStartTime",
      "outputs": [],
      "stateMutability": "nonpayable",
      "type": "function"
    },
    {
      "inputs": [
        {
          "internalType": "address",
          "name": "newLaunchpadToken",
          "type": "address"
        }
      ],
      "name": "setLaunchpadToken",
      "outputs": [],
      "stateMutability": "nonpayable",
      "type": "function"
    },
    {
      "inputs": [
        {
          "internalType": "uint256",
          "name": "amount",
          "type": "uint256"
        }
      ],
      "name": "setLaunchpadTokensPerWinningTicket",
      "outputs": [],
      "stateMutability": "nonpayable",
      "type": "function"
    },
    {
      "inputs": [],
      "name": "setNftLaunchpad",
      "outputs": [],
      "stateMutability": "nonpayable",
      "type": "function"
    },
    {
      "inputs": [
        {
          "internalType": "uint256",
          "name": "amount",
          "type": "uint256"
        }
      ],
      "name": "setTicketPrice",
      "outputs": [],
      "stateMutability": "nonpayable",
      "type": "function"
    },
    {
      "inputs": [
        {
          "internalType": "address",
          "name": "newTicketToken",
          "type": "address"
        }
      ],
      "name": "setTicketToken",
      "outputs": [],
      "stateMutability": "nonpayable",
      "type": "function"
    },
    {
      "inputs": [
        {
          "internalType": "uint256",
          "name": "newStartTime",
          "type": "uint256"
        }
      ],
      "name": "setWinnerSelectionStartTime",
      "outputs": [],
      "stateMutability": "nonpayable",
      "type": "function"
    },
    {
      "inputs": [
        {
          "internalType": "bytes4",
          "name": "interfaceId",
          "type": "bytes4"
        }
      ],
      "name": "supportsInterface",
      "outputs": [
        {
          "internalType": "bool",
          "name": "",
          "type": "bool"
        }
      ],
      "stateMutability": "view",
      "type": "function"
    },
    {
      "inputs": [],
      "name": "symbol",
      "outputs": [
        {
          "internalType": "string",
          "name": "",
          "type": "string"
        }
      ],
      "stateMutability": "view",
      "type": "function"
    },
    {
      "inputs": [
        {
          "internalType": "uint256",
          "name": "tokenId",
          "type": "uint256"
        }
      ],
      "name": "tokenURI",
      "outputs": [
        {
          "internalType": "string",
          "name": "",
          "type": "string"
        }
      ],
      "stateMutability": "view",
      "type": "function"
    },
    {
      "inputs": [
        {
          "internalType": "address",
          "name": "from",
          "type": "address"
        },
        {
          "internalType": "address",
          "name": "to",
          "type": "address"
        },
        {
          "internalType": "uint256",
          "name": "tokenId",
          "type": "uint256"
        }
      ],
      "name": "transferFrom",
      "outputs": [],
      "stateMutability": "nonpayable",
      "type": "function"
    },
    {
      "inputs": [
        {
          "internalType": "address",
          "name": "newOwner",
          "type": "address"
        }
      ],
      "name": "transferOwnership",
      "outputs": [],
      "stateMutability": "nonpayable",
      "type": "function"
    },
    {
      "inputs": [],
      "name": "wereLaunchpadTokensDeposited",
      "outputs": [
        {
          "internalType": "bool",
          "name": "",
          "type": "bool"
        }
      ],
      "stateMutability": "view",
      "type": "function"
    }
  ],
  "transactionHash": "0x8434a1b31baf92e667c03e203399a466a9dd19b6d4f9e5f8e9f74d2cebe214ef",
  "args": [
    "0x022b6bd6a8b84c38f95970fc7538ff1c9fd15b7e64142d7100572acd63fa500cfd563caf79fc555cf10264310b5d043dcf1b77a424bba150290b545f3400ce99b201b8913d6ea70969e2ba48c6a1e3a240",
    "0x035206f5bad784ae06a16da9e0d47e762a4abfe658f74db40bdfcef72368957891",
    "0x7c720C88Ac55865Eb3B0D8AaC5C24133Ace3309f",
    1,
    "0x0000000000000000000000000000000000000000",
    1,
    1000,
    1730308873,
    1730308953,
    1730309113
  ],
  "numDeployments": 16,
  "solcInputHash": "2838e75cd3203e0771d8a453a2cb14f0",
  "bytecode": "0x60806040523480156200001157600080fd5b506040516200790338038062007903833981016040819052620000349162001672565b336040518060400160405280600d81526020016c13185d5b98da1c185908139195609a1b815250604051806040016040528060048152602001631313919560e21b8152508160009081620000899190620017cc565b506001620000988282620017cc565b5050506001600160a01b038116620000cb57604051631e4fbdf760e01b8152600060048201526024015b60405180910390fd5b620000d681620003a5565b50600060275583620001515760405162461bcd60e51b815260206004820152603360248201527f4e756d626572206f662077696e6e696e67207469636b657473206d757374206260448201527f652067726561746572207468616e207a65726f000000000000000000000000006064820152608401620000c2565b60006200015e8a620003f7565b90506200016f6022826002620014f2565b506200019e81620001808d62000486565b6040805180820190915260018152600360fc1b602082015262000539565b620001dc5760405162461bcd60e51b815260206004820152600d60248201526c24b73b30b634b210383937b7b360991b6044820152606401620000c2565b604080516101608101825261010081018681526101208201869052610140820185905281526001600160a01b0389811660208084019182528d8316848601908152606085018e8152608086018d81528751808901895260008082528186018f905260a0890182905260c0890181905260e089015287518051600790815595810151600855909801516009559351600a80549187166001600160a01b03199283161790559151600b8054919096169216919091179093559151600c5551600d558251600e805493949293909190829060ff191660018381811115620002c457620002c462001898565b02179055506020918201516001919091015560c083015160098301805460ff191691151591909117905560e090920151600a909101556040805160808101825260008082529281018390529081018290526060018190526006805463ffffffff1916905560125582841080156200033a57508183105b80156200034657504284115b620003945760405162461bcd60e51b815260206004820152601460248201527f496e76616c69642074696d6520706572696f64730000000000000000000000006044820152606401620000c2565b505050505050505050505062001abc565b602680546001600160a01b038381166001600160a01b0319831681179093556040519116919082907f8be0079c531659141344cd1fd0a4f28419497f9722a3daafe3b4186f6b6457e090600090a35050565b6200040162001535565b8151602114620004545760405162461bcd60e51b815260206004820152601d60248201527f4d616c666f726d656420636f6d7072657373656420454320706f696e740000006044820152606401620000c2565b6001820151602183015160006200046c838362000626565b604080518082019091529283526020830152509392505050565b6200049062001553565b8151605114620004e35760405162461bcd60e51b815260206004820152601360248201527f4d616c666f726d6564205652462070726f6f66000000000000000000000000006044820152606401620000c2565b6001820151602183015160318401516051850151600062000505858562000626565b6040805160808101825295865260208601919091526001600160801b03909316928401929092526060830152509392505050565b6000808062000549868562000647565b6060870151604088015189519395509193506000928392620005b992917f79be667ef9dcbbac55a06295ce870b07029bfcdb2dce28d959f2815b16f81798917f483ada7726a3c4655da4fbfc0e1108a8fd17b448a68554199c47d08ffb10d4b8918d60015b6020020151620007c2565b606089015160408a01518a519395509193506000928392620005e39291899189918e6001620005ae565b909250905060006200060987878c8460200201518d60016020020151898989896200081e565b60408b015160809190911c149750505050505050505b9392505050565b60006200063e83838360076401000003d019620008e9565b90505b92915050565b6000808060fe60016200066887846020020151886001602002015162000a3d565b866040516020016200067e9493929190620018ae565b604051602081830303815290604052905060005b6101008160ff1610156200077157600060028383604051602001620006b992919062001905565b60408051601f1981840301815290829052620006d59162001939565b602060405180830381855afa158015620006f3573d6000803e3d6000fd5b5050506040513d601f19601f8201168201806040525081019062000718919062001957565b90508060006200072a60028362000626565b9050620007438282600060076401000003d01962000a97565b1562000758579095509350620007bb92505050565b5050508080620007689062001987565b91505062000692565b5060405162461bcd60e51b815260206004820152601860248201527f4e6f2076616c696420706f696e742077617320666f756e6400000000000000006044820152606401620000c2565b9250929050565b6000808080620007d48a8a8a62000b69565b9092509050600080620007e989898962000b69565b90925090506000806200080786868686856401000003d01962000b8d565b90985096505050505050505b965096945050505050565b60008060fe6002620008318c8c62000a3d565b6200083d8b8b62000a3d565b620008498a8a62000a3d565b62000855898962000a3d565b6040516020016200086c96959493929190620019a9565b6040516020818303038152906040529050600060028260405162000891919062001939565b602060405180830381855afa158015620008af573d6000803e3d6000fd5b5050506040513d601f19601f82011682018060405250810190620008d4919062001957565b6040518190529b9a5050505050505050505050565b60008560ff16600214806200090157508560ff166003145b620009695760405162461bcd60e51b815260206004820152603160248201527f456c6c697074696343757276653a696e6e76616c696420636f6d7072657373656044820152700c8408a8640e0ded2dce840e0e4caccd2f607b1b6064820152608401620000c2565b600082806200097c576200097c62001a32565b83806200098d576200098d62001a32565b8585806200099f576200099f62001a32565b888a09088480620009b457620009b462001a32565b8580620009c557620009c562001a32565b898a098909089050620009f4816004620009e186600162001a48565b620009ed919062001a5e565b8562000bc5565b90506000600262000a0960ff8a168462001a48565b62000a15919062001a75565b1562000a2d5762000a27828562001a8c565b62000a2f565b815b925050505b95945050505050565b6060600062000a4e60028462001a75565b62000a5b90600262001a48565b6040516001600160f81b031960f883901b1660208201526021810186905290915060410160405160208183030381529060405291505092915050565b600085158062000aa75750818610155b8062000ab1575084155b8062000abd5750818510155b1562000acc5750600062000a34565b6000828062000adf5762000adf62001a32565b86870990506000838062000af75762000af762001a32565b88858062000b095762000b0962001a32565b8a8b09099050851562000b4057838062000b275762000b2762001a32565b848062000b385762000b3862001a32565b878a09820890505b841562000b5e57838062000b585762000b5862001a32565b85820890505b149695505050505050565b60008062000b81858585846401000003d01962000ca4565b91509150935093915050565b600080808062000b9f88888762000ce1565b909250905062000bb48a8a84848a8a62000cfe565b935093505050965096945050505050565b60008160000362000c195760405162461bcd60e51b815260206004820152601e60248201527f456c6c697074696343757276653a206d6f64756c7573206973207a65726f00006044820152606401620000c2565b8360000362000c2b575060006200061f565b8260000362000c3d575060016200061f565b6001600160ff1b5b801562000c9b57838186161515870a85848509099150836002820486161515870a85848509099150836004820486161515870a85848509099150836008820486161515870a858485090991506010900462000c45565b50949350505050565b60008080808062000cbb8a8a8a60018b8b62000d91565b9194509250905062000cd08383838962000e1e565b945094505050509550959350505050565b600080848362000cf2868262001a8c565b62000b81919062001a75565b6000806000806000888b0362000d5757858062000d1f5762000d1f62001a32565b888b0860000362000d3a576000809450945050505062000813565b62000d4a8b8b60018a8a62000e9a565b9194509250905062000d71565b62000d698b8b60018c8c828c6200107e565b919450925090505b62000d7f8383838962000e1e565b94509450505050965096945050505050565b60008060008860000362000dad57508691508590508462000e12565b8860008060015b831562000e0957600184161562000dde5762000dd68383838f8f8f8e6200107e565b919450925090505b62000deb60028562001a5e565b935062000dfc8c8c8c8c8c62000e9a565b919d509b50995062000db4565b91955093509150505b96509650969350505050565b6000808062000e2e858562001412565b90506000848062000e435762000e4362001a32565b82830990506000858062000e5b5762000e5b62001a32565b828a0990506000868062000e735762000e7362001a32565b878062000e845762000e8462001a32565b8486098a09919a91995090975050505050505050565b60008060008560000362000eb657508691508590508462001073565b6000848062000ec95762000ec962001a32565b898a0990506000858062000ee15762000ee162001a32565b898a0990506000868062000ef95762000ef962001a32565b898a0990506000878062000f115762000f1162001a32565b888062000f225762000f2262001a32565b848e0960040990506000888062000f3d5762000f3d62001a32565b898062000f4e5762000f4e62001a32565b8a8062000f5f5762000f5f62001a32565b8586098c098a8062000f755762000f7562001a32565b87600309089050888062000f8d5762000f8d62001a32565b898062000f9e5762000f9e62001a32565b83840862000fad908b62001a8c565b8a8062000fbe5762000fbe62001a32565b838409089450888062000fd55762000fd562001a32565b898062000fe65762000fe662001a32565b8a8062000ff75762000ff762001a32565b86870960080962001009908b62001a8c565b8a806200101a576200101a62001a32565b8b806200102b576200102b62001a32565b62001037898e62001a8c565b8608840908935088806200104f576200104f62001a32565b898062001060576200106062001a32565b8c8e096002099497509295509293505050505b955095509592505050565b60008080891580156200108f575088155b15620010a357508591508490508362001405565b86158015620010b0575085155b15620010c457508891508790508662001405565b620010ce62001553565b8480620010df57620010df62001a32565b898a0981528480620010f557620010f562001a32565b81518a09602082015284806200110f576200110f62001a32565b8687096040820152848062001128576200112862001a32565b604082015187096060820152604080516080810190915280868062001151576200115162001a32565b60408401518e09815260200186806200116e576200116e62001a32565b60608401518d09815260200186806200118b576200118b62001a32565b83518b0981526020018680620011a557620011a562001a32565b60208401518a09905260408101518151919250141580620011ce57506060810151602082015114155b6200121c5760405162461bcd60e51b815260206004820152601e60248201527f557365206a6163446f75626c652066756e6374696f6e20696e737465616400006044820152606401620000c2565b6200122662001553565b858062001237576200123762001a32565b825162001245908862001a8c565b604084015108815285806200125e576200125e62001a32565b60208301516200126f908862001a8c565b606084015108602082015285806200128b576200128b62001a32565b8151800960408201528580620012a557620012a562001a32565b8151604083015109606082015260008680620012c557620012c562001a32565b6060830151620012d6908962001a8c565b8880620012e757620012e762001a32565b60208501518009089050868062001302576200130262001a32565b878062001313576200131362001a32565b888062001324576200132462001a32565b60408501518651096002096200133b908962001a8c565b820890506000878062001352576200135262001a32565b888062001363576200136362001a32565b6200136f848b62001a8c565b8a8062001380576200138062001a32565b60408701518851090860208501510990508780620013a257620013a262001a32565b8880620013b357620013b362001a32565b6060850151602087015109620013ca908a62001a8c565b8208905060008880620013e157620013e162001a32565b8980620013f257620013f262001a32565b8b8f098551099297509095509093505050505b9750975097945050505050565b60008215801590620014245750818314155b80156200143057508115155b6200146f5760405162461bcd60e51b815260206004820152600e60248201526d24b73b30b634b210373ab6b132b960911b6044820152606401620000c2565b6000600183825b8615620014e75762001489878362001a5e565b90508286806200149d576200149d62001a32565b8780620014ae57620014ae62001a32565b858409620014bd908962001a8c565b8608909450925086620014d1818362001aa2565b620014dd908462001a8c565b9750915062001476565b509195945050505050565b826002810192821562001523579160200282015b828111156200152357825182559160200191906001019062001506565b506200153192915062001571565b5090565b60405180604001604052806002906020820280368337509192915050565b60405180608001604052806004906020820280368337509192915050565b5b8082111562001531576000815560010162001572565b634e487b7160e01b600052604160045260246000fd5b60005b83811015620015bb578181015183820152602001620015a1565b50506000910152565b600082601f830112620015d657600080fd5b81516001600160401b0380821115620015f357620015f362001588565b604051601f8301601f19908116603f011681019082821181831017156200161e576200161e62001588565b816040528381528660208588010111156200163857600080fd5b6200164b8460208301602089016200159e565b9695505050505050565b80516001600160a01b03811681146200166d57600080fd5b919050565b6000806000806000806000806000806101408b8d0312156200169357600080fd5b8a516001600160401b0380821115620016ab57600080fd5b620016b98e838f01620015c4565b9b5060208d0151915080821115620016d057600080fd5b50620016df8d828e01620015c4565b995050620016f060408c0162001655565b975060608b015196506200170760808c0162001655565b955060a08b0151945060c08b0151935060e08b015192506101008b015191506101208b015190509295989b9194979a5092959850565b600181811c908216806200175257607f821691505b6020821081036200177357634e487b7160e01b600052602260045260246000fd5b50919050565b601f821115620017c757600081815260208120601f850160051c81016020861015620017a25750805b601f850160051c820191505b81811015620017c357828155600101620017ae565b5050505b505050565b81516001600160401b03811115620017e857620017e862001588565b6200180081620017f984546200173d565b8462001779565b602080601f8311600181146200183857600084156200181f5750858301515b600019600386901b1c1916600185901b178555620017c3565b600085815260208120601f198616915b82811015620018695788860151825594840194600190910190840162001848565b5085821015620018885787850151600019600388901b60f8161c191681555b5050505050600190811b01905550565b634e487b7160e01b600052602160045260246000fd5b600060ff60f81b808760f81b168352808660f81b166001840152508351620018de8160028501602088016200159e565b835190830190620018f78160028401602088016200159e565b016002019695505050505050565b60008351620019198184602088016200159e565b60f89390931b6001600160f81b0319169190920190815260010192915050565b600082516200194d8184602087016200159e565b9190910192915050565b6000602082840312156200196a57600080fd5b5051919050565b634e487b7160e01b600052601160045260246000fd5b600060ff821660ff8103620019a057620019a062001971565b60010192915050565b600060ff60f81b808960f81b168352808860f81b166001840152508551620019d9816002850160208a016200159e565b855190830190620019f2816002840160208a016200159e565b855191019062001a0a8160028401602089016200159e565b845191019062001a228160028401602088016200159e565b0160020198975050505050505050565b634e487b7160e01b600052601260045260246000fd5b8082018082111562000641576200064162001971565b60008262001a705762001a7062001a32565b500490565b60008262001a875762001a8762001a32565b500690565b8181038181111562000641576200064162001971565b808202811582820484141762000641576200064162001971565b615e378062001acc6000396000f3fe6080604052600436106103c35760003560e01c80636ee7f70b116101f2578063a84927e81161010d578063cb580080116100a0578063ebbba9171161006f578063ebbba91714610bdb578063f2fde38b14610bfb578063f8b3df2314610c1b578063fa7c2d6614610c3b57600080fd5b8063cb58008014610b56578063ce8f6e2114610b76578063d84e29ea14610b8b578063e985e9c514610bbb57600080fd5b8063c66cfe1f116100dc578063c66cfe1f14610ac0578063c7fdc35814610ae0578063c87b56dd14610b16578063c9df5e6614610b3657600080fd5b8063a84927e814610a01578063b4a768d614610a23578063b7fc83f814610a8b578063b88d4fde14610aa057600080fd5b80638da5cb5b11610185578063a195b69c11610154578063a195b69c146108ba578063a22cb465146108f2578063a323f7fe14610912578063a5594ae51461094857600080fd5b80638da5cb5b1461086957806395d89b411461088757806397bf7c0b1461089c578063a10f60de1461068c57600080fd5b80637d3d6ee5116101c15780637d3d6ee5146107fd578063812083211461081257806382781aba1461082757806387bb7ae01461085457600080fd5b80636ee7f70b1461079e57806370a08231146107b3578063715018a6146107d357806372e67df3146107e857600080fd5b80633cfad83d116102e25780634c14b770116102755780635de38ce1116102445780635de38ce1146107345780636352211e146107545780636be7410b146107745780636e02007d1461078957600080fd5b80634c14b770146106a1578063503b8e81146106b957806358ddfca9146106f25780635ae2afa41461071f57600080fd5b806342842e0e116102b157806342842e0e1461064c578063450e9dec1461066c57806347503d6b1461068c5780634b7938991461068c57600080fd5b80633cfad83d146105d55780633dc060de146105ea5780633fa1e1291461060a57806340bb2fee1461062a57600080fd5b806322b692de1161035a57806325bf76ca1161032957806325bf76ca146105605780632dec60ce1461058057806331cb1304146105a057806339a2eb2a146105b557600080fd5b806322b692de146104eb5780632325cc721461050b57806323b872dd146105205780632533a5f61461054057600080fd5b8063095ea7b311610396578063095ea7b31461047957806315981650146104995780631739a7b0146104b95780631ad280d3146104d857600080fd5b806301ffc9a7146103c857806305659ac6146103fd57806306fdde031461041f578063081812fc14610441575b600080fd5b3480156103d457600080fd5b506103e86103e33660046153d8565b610c5b565b60405190151581526020015b60405180910390f35b34801561040957600080fd5b5061041d610418366004615549565b610cad565b005b34801561042b57600080fd5b50610434610feb565b6040516103f49190615621565b34801561044d57600080fd5b5061046161045c366004615634565b61107d565b6040516001600160a01b0390911681526020016103f4565b34801561048557600080fd5b5061041d61049436600461564d565b6110a6565b3480156104a557600080fd5b5061041d6104b4366004615634565b6110b5565b3480156104c557600080fd5b506011545b6040519081526020016103f4565b61041d6104e6366004615634565b6111a4565b3480156104f757600080fd5b5061041d610506366004615634565b6114b0565b34801561051757600080fd5b5061041d611821565b34801561052c57600080fd5b5061041d61053b366004615677565b611b9b565b34801561054c57600080fd5b5061041d61055b366004615634565b611c26565b34801561056c57600080fd5b5061041d61057b3660046156b3565b611cda565b34801561058c57600080fd5b5061041d61059b366004615634565b611dfe565b3480156105ac57600080fd5b506008546104ca565b3480156105c157600080fd5b5061041d6105d0366004615634565b611f06565b3480156105e157600080fd5b5061043461217b565b3480156105f657600080fd5b5061041d6106053660046156b3565b61218f565b34801561061657600080fd5b5061041d610625366004615634565b6122aa565b34801561063657600080fd5b5061063f61239a565b6040516103f491906156fe565b34801561065857600080fd5b5061041d610667366004615677565b6123f6565b34801561067857600080fd5b5061041d610687366004615729565b612411565b34801561069857600080fd5b506012546104ca565b3480156106ad57600080fd5b5060105460ff166103e8565b3480156106c557600080fd5b506103e86106d4366004615729565b6001600160a01b03166000908152601b602052604090205460ff1690565b3480156106fe57600080fd5b5061071261070d366004615729565b6124f2565b6040516103f49190615744565b34801561072b57600080fd5b5061041d61259c565b34801561074057600080fd5b5061041d61074f366004615729565b61273f565b34801561076057600080fd5b5061046161076f366004615634565b612820565b34801561078057600080fd5b5061041d61282b565b34801561079557600080fd5b506027546104ca565b3480156107aa57600080fd5b5061041d612cfe565b3480156107bf57600080fd5b506104ca6107ce366004615729565b612d1b565b3480156107df57600080fd5b5061041d612d63565b3480156107f457600080fd5b506009546104ca565b34801561080957600080fd5b50610712612d77565b34801561081e57600080fd5b50600c546104ca565b34801561083357600080fd5b50610847610842366004615729565b612dc0565b6040516103f49190615765565b34801561086057600080fd5b506104ca612f94565b34801561087557600080fd5b506026546001600160a01b0316610461565b34801561089357600080fd5b50610434612fe6565b3480156108a857600080fd5b50600b546001600160a01b0316610461565b3480156108c657600080fd5b506103e86108d5366004615729565b6001600160a01b0316600090815260208052604090205460ff1690565b3480156108fe57600080fd5b5061041d61090d3660046157b7565b612ff5565b34801561091e57600080fd5b506104ca61092d366004615729565b6001600160a01b031660009081526019602052604090205490565b34801561095457600080fd5b506109c6604080516080810182526000808252602082018190529181018290526060810191909152506040805160808101825260065460ff8082161515835261010082048116151560208401526201000082048116151593830193909352630100000090049091161515606082015290565b6040516103f4919081511515815260208083015115159082015260408083015115159082015260609182015115159181019190915260800190565b348015610a0d57600080fd5b50610a16613000565b6040516103f491906157ee565b348015610a2f57600080fd5b50610a7c610a3e366004615729565b60408051602080820183526000918290526001600160a01b039390931681526029835281812054815260288352819020815192830190915254815290565b604051905181526020016103f4565b348015610a9757600080fd5b506007546104ca565b348015610aac57600080fd5b5061041d610abb366004615878565b61306b565b348015610acc57600080fd5b506104ca610adb366004615634565b613082565b348015610aec57600080fd5b506104ca610afb366004615729565b6001600160a01b031660009081526021602052604090205490565b348015610b2257600080fd5b50610434610b31366004615634565b6130ae565b348015610b4257600080fd5b5061041d610b51366004615634565b613123565b348015610b6257600080fd5b5061041d610b71366004615634565b613171565b348015610b8257600080fd5b5061041d61321e565b348015610b9757600080fd5b506103e8610ba6366004615634565b60009081526014602052604090205460ff1690565b348015610bc757600080fd5b506103e8610bd63660046158e0565b61326c565b348015610be757600080fd5b5061041d610bf6366004615913565b61329a565b348015610c0757600080fd5b5061041d610c16366004615729565b6133b4565b348015610c2757600080fd5b506104ca610c36366004615729565b6133ef565b348015610c4757600080fd5b506104ca610c56366004615729565b61345a565b60006001600160e01b031982166380ac58cd60e01b1480610c8c57506001600160e01b03198216635b5e139f60e01b145b80610ca757506301ffc9a760e01b6001600160e01b03198316145b92915050565b610cb56134e3565b6000610cbf613000565b90506002816003811115610cd557610cd56156e8565b10610cfb5760405162461bcd60e51b8152600401610cf290615948565b60405180910390fd5b82518451148015610d0d575081518451145b610d685760405162461bcd60e51b815260206004820152602660248201527f496e70757420617272617973206d7573742068617665207468652073616d65206044820152650d8cadccee8d60d31b6064820152608401610cf2565b601c54600f5460009190825b8751811015610f3357610dd3888281518110610d9257610d9261597f565b6020026020010151888381518110610dac57610dac61597f565b6020026020010151888481518110610dc657610dc661597f565b6020026020010151613510565b15610f2157858181518110610dea57610dea61597f565b6020026020010151878281518110610e0457610e0461597f565b60200260200101511015610e805760405162461bcd60e51b815260206004820152603a60248201527f43616e277420616464206d6f72652067756172616e746565642077696e6e696e60448201527f67207468616e20636f6e6669726d61626c65207469636b6574730000000000006064820152608401610cf2565b83610e8a816159ab565b945050858181518110610e9f57610e9f61597f565b602002602001015183610eb291906159c4565b925081831115610f215760405162461bcd60e51b815260206004820152603460248201527f417474656d7074656420746f2061646420746f6f206d616e792067756172616e604482015273746565642077696e6e696e67207469636b65747360601b6064820152608401610cf2565b80610f2b816159ab565b915050610d74565b5060008311610faa5760405162461bcd60e51b815260206004820152603c60248201527f416c6c20696e70757420616464726573736573206861766520616c726561647960448201527f206265656e20616464656420746f20746865206c61756e6368706164000000006064820152608401610cf2565b601c8290556040518381527fa96c43b66e9035fa672b1b5d01047f92e890df0425b9727356d569ec2a36dd2d9060200160405180910390a150505050505050565b606060008054610ffa906159d7565b80601f0160208091040260200160405190810160405280929190818152602001828054611026906159d7565b80156110735780601f1061104857610100808354040283529160200191611073565b820191906000526020600020905b81548152906001019060200180831161105657829003601f168201915b5050505050905090565b6000611088826135f4565b506000828152600460205260409020546001600160a01b0316610ca7565b6110b182823361362d565b5050565b6110bd6134e3565b60006110c7613000565b905060008160038111156110dd576110dd6156e8565b146110fa5760405162461bcd60e51b8152600401610cf290615948565b600082116111555760405162461bcd60e51b815260206004820152602260248201527f5469636b6574207072696365206d75737420626520686967686572207468616e604482015261020360f41b6064820152608401610cf2565b600d829055600a54604080518481526001600160a01b0390921660208301527f357db995b6ab6dd8d40e6f99176fe1e58b28e0bd44a18fa17da37762b360dab791015b60405180910390a15050565b60006111ae613000565b905060018160038111156111c4576111c46156e8565b146112115760405162461bcd60e51b815260206004820152601a60248201527f4e6f7420696e20636f6e6669726d6174696f6e20706572696f640000000000006044820152606401610cf2565b60105460ff1661126e5760405162461bcd60e51b815260206004820152602260248201527f4c61756e636870616420746f6b656e73206e6f74206465706f73697465642079604482015261195d60f21b6064820152608401610cf2565b6112773361363a565b6000611282336133ef565b3360009081526019602052604081205491925061129f85836159c4565b9050828111156112fc5760405162461bcd60e51b815260206004820152602260248201527f547279696e6720746f20636f6e6669726d20746f6f206d616e79207469636b65604482015261747360f01b6064820152608401610cf2565b600d54600061130b8783615a11565b600a549091506001600160a01b031661138d578034146113885760405162461bcd60e51b815260206004820152603260248201527f46756e647320696e206d6573736167652073686f756c64206d6174636820746f60448201527174616c20726571756972656420707269636560701b6064820152608401610cf2565b61140a565b600a546040516323b872dd60e01b8152336004820152306024820152604481018390526001600160a01b03909116906323b872dd906064016020604051808303816000875af11580156113e4573d6000803e3d6000fd5b505050506040513d601f19601f820116820180604052508101906114089190615a28565b505b3360009081526019602052604090208390556024546040805160208101869052016040516020818303038152906040528051906020012060405160200161145b929190918252602082015260400190565b60408051808303601f1901815290829052805160209182012060245588825233917f63fd54a53d90b47a3d21890ce80385ea5c8f4d19e14828194fea1c7b98ccd411910160405180910390a250505050505050565b6114b86134e3565b60026114c2613000565b60038111156114d3576114d36156e8565b146115205760405162461bcd60e51b815260206004820152601d60248201527f4e6f7420696e2077696e6e65722073656c656374696f6e2073746167650000006044820152606401610cf2565b600654610100900460ff16156115785760405162461bcd60e51b815260206004820152601860248201527f5469636b65747320616c72656164792066696c746572656400000000000000006044820152606401610cf2565b601e54600003611588576001601e555b60125460006115988260016159c4565b905060005b83811080156115ae5750601e548310155b1561179457601e5460009081526017602090815260408083208151808301835281546001600160a01b03168082526001909201549084018190528185526019845282852054601b909452919093205490919060ff168061160c575080155b1561166357601e546001600160a01b0384166000908152601860209081526040808320838155600180820185905560029091018490559383526017909152812080546001600160a01b03191681559091015561174a565b6001600160a01b0383166000908152601860205260408120600201549061168a82846136bb565b601554601f54601e549293506000926116a39190615a45565b6116ad9190615a45565b9050600060016116bd84846159c4565b6116c79190615a45565b90508098506116d987838387896136dd565b6116e2876124f2565b604001516015546116f391906159c4565b601555506000818152601760208181526040808420805482518084019093526001600160a01b038c811684528385019889529690955292909152519092166001600160a01b03199091161781559051600190910155505b60006117568284615a45565b601f549091506117679082906159c4565b601f55601e546117789084906159c4565b601e555083925061178c91508290506159ab565b91505061159d565b50601e547f43083f57768127ccb9784144c4a44c74633323c3671de57a9cdb0f0caee6f760906117c690600190615a45565b60408051918252602082018590520160405180910390a1601e5482101561181c576015546117fd906117f890836159c4565b613741565b60128190556006805461ff0019166101001790556000601e819055601f555b505050565b6118296134e3565b6000611833613000565b90506003816003811115611849576118496156e8565b146118665760405162461bcd60e51b8152600401610cf290615a58565b60065462010000900460ff1661188e5760405162461bcd60e51b8152600401610cf290615a85565b60165460ff161561191a5760405162461bcd60e51b815260206004820152604a60248201527f5469636b6574207061796d656e74202b206c6566746f766572206c61756e636860448201527f70616420746f6b656e20726566756e6420666f72206f776e657220616c726561606482015269191e4818db185a5b595960b21b608482015260a401610cf2565b6016805460ff1916600117905560115460008115801590611943575060065462010000900460ff165b15611a7857600a546001600160a01b03166119e257600061196c6026546001600160a01b031690565b6001600160a01b03168360405160006040518083038185875af1925050503d80600081146119b6576040519150601f19603f3d011682016040523d82523d6000602084013e6119bb565b606091505b50509050806119dc5760405162461bcd60e51b8152600401610cf290615abc565b50611a78565b600a546001600160a01b031663a9059cbb611a056026546001600160a01b031690565b6040516001600160e01b031960e084901b1681526001600160a01b039091166004820152602481018590526044016020604051808303816000875af1158015611a52573d6000803e3d6000fd5b505050506040513d601f19601f82011682018060405250810190611a769190615a28565b505b60135460065460009062010000900460ff16611a95576000611a99565b600f545b600c54909150600090611aad908390615a11565b905080831115611b5a57611ac18184615a45565b600b549094506001600160a01b031663a9059cbb611ae76026546001600160a01b031690565b6040516001600160e01b031960e084901b1681526001600160a01b039091166004820152602481018790526044016020604051808303816000875af1158015611b34573d6000803e3d6000fd5b505050506040513d601f19601f82011682018060405250810190611b589190615a28565b505b60408051868152602081018690527f56401aa3ba50e689e155123b2cb3f3874d522f85bb6313d489eacd59b45ba257910160405180910390a1505050505050565b6001600160a01b038216611bc557604051633250574960e11b815260006004820152602401610cf2565b6000611bd28383336137b2565b9050836001600160a01b0316816001600160a01b031614611c20576040516364283d7b60e01b81526001600160a01b0380861660048301526024820184905282166044820152606401610cf2565b50505050565b611c2e6134e3565b428111611c4d5760405162461bcd60e51b8152600401610cf290615af3565b6008548111611c9e5760405162461bcd60e51b815260206004820152601e60248201527f4d7573742062652061667465722077696e6e65722073656c656374696f6e00006044820152606401610cf2565b60098190556040518181527f9a117d50db495b8e5b6defa7f392b1b49b14632c64e0187edc7d487038007b6a906020015b60405180910390a150565b611ce26134e3565b6002611cec613000565b6003811115611cfd57611cfd6156e8565b10611d1a5760405162461bcd60e51b8152600401610cf290615b37565b6000815111611d675760405162461bcd60e51b815260206004820152601960248201527855736572206c6973742063616e6e6f7420626520656d70747960381b6044820152606401610cf2565b60005b8151811015611dce576000828281518110611d8757611d8761597f565b60200260200101519050611d9a816138ab565b6001600160a01b03166000908152601b60205260409020805460ff1916600117905580611dc6816159ab565b915050611d6a565b507fb0acc561764f1521c892494310b184e20cafc08c4d047edaeeed1b55af37fe3081604051611ccf9190615b7b565b611e066134e3565b428111611e255760405162461bcd60e51b8152600401610cf290615af3565b6007548111611e805760405162461bcd60e51b815260206004820152602160248201527f4d75737420626520616674657220636f6e6669726d6174696f6e20706572696f6044820152601960fa1b6064820152608401610cf2565b6009548110611ed15760405162461bcd60e51b815260206004820152601b60248201527f4d757374206265206265666f726520636c61696d20706572696f6400000000006044820152606401610cf2565b60088190556040518181527fc69fad2af0fd3e7e6beeca22b6f052bebe69572031465b2dadd31dba59688b3d90602001611ccf565b611f0e6134e3565b6002611f18613000565b6003811115611f2957611f296156e8565b14611f765760405162461bcd60e51b815260206004820152601d60248201527f4e6f7420696e2077696e6e65722073656c656374696f6e2073746167650000006044820152606401610cf2565b600654610100900460ff16611fcd5760405162461bcd60e51b815260206004820152601960248201527f4d7573742066696c746572207469636b657473206669727374000000000000006044820152606401610cf2565b60065462010000900460ff16156120265760405162461bcd60e51b815260206004820152601860248201527f57696e6e65727320616c72656164792073656c656374656400000000000000006044820152606401610cf2565b6025546000036120785760405162461bcd60e51b815260206004820152601860248201527f53687566666c6572206e6f7420696e697469616c697a656400000000000000006044820152606401610cf2565b600f5460155460009061208b9083615a45565b601254601d54919250906000036120a2576001601d555b60005b84811080156120b65750601d548310155b80156120c45750601d548210155b156120f957601d546120d690836139e9565b601d546120e49060016159c4565b601d55806120f1816159ab565b9150506120a5565b50601d548211158061210d5750601d548111155b15612139576006805462ff0000191662010000179055600d54600090612134908590615a11565b601155505b601d5460408051918252602082018490527f207af04099d653c834032f132e688b489f38f79daeb66bb678ecfa801ea5d046910160405180910390a150505050565b60245460609061218a90613a9b565b905090565b6121976134e3565b60026121a1613000565b60038111156121b2576121b26156e8565b106121cf5760405162461bcd60e51b8152600401610cf290615b37565b600081511161221c5760405162461bcd60e51b815260206004820152601960248201527855736572206c6973742063616e6e6f7420626520656d70747960381b6044820152606401610cf2565b60005b815181101561227a57600082828151811061223c5761223c61597f565b6020908102919091018101516001600160a01b03166000908152601b90915260409020805460ff191690555080612272816159ab565b91505061221f565b507f0d90ea9b5e05e27044df05bdbc6e16c9e075b7c9aa2e82b3f164909fce0aa96f81604051611ccf9190615b7b565b6122b26134e3565b60006122bc613000565b905060008160038111156122d2576122d26156e8565b146122ef5760405162461bcd60e51b8152600401610cf290615948565b600082116123655760405162461bcd60e51b815260206004820152603960248201527f4c61756e636870616420746f6b656e73207065722077696e6e696e672074696360448201527f6b65742063616e6e6f742062652073657420746f207a65726f000000000000006064820152608401610cf2565b600c8290556040518281527f71a23193f99964042d171de9a10b99aa086546ce2b80f3613d18ea27f09554cf90602001611198565b604080518082019091526000808252602082015260408051808201909152600e8054829060ff1660018111156123d2576123d26156e8565b60018111156123e3576123e36156e8565b8152602001600182015481525050905090565b61181c8383836040518060200160405280600081525061306b565b6124196134e3565b6000612423613000565b90506000816003811115612439576124396156e8565b146124565760405162461bcd60e51b8152600401610cf290615948565b6001600160a01b0382166124a45760405162461bcd60e51b8152602060048201526015602482015274496e76616c696420746f6b656e206164647265737360581b6044820152606401610cf2565b600a80546001600160a01b0319166001600160a01b0384169081179091556040519081527f4f920c46ca85a648f9179bdcbe4a821d507a0d03946e947c70fb47e943b66df090602001611198565b61251660405180606001604052806000815260200160008152602001600081525090565b6001600160a01b03821660009081526018602090815260408083208151606081018352815481526001820154938101849052600290910154918101919091529103610ca75760405162461bcd60e51b8152602060048201526016602482015275151a58dad95d081c985b99d9481b9bdd08199bdd5b9960521b6044820152606401610cf2565b60006125a6613000565b905060038160038111156125bc576125bc6156e8565b146125d95760405162461bcd60e51b8152600401610cf290615a58565b60065462010000900460ff166126015760405162461bcd60e51b8152600401610cf290615a85565b6006546301000000900460ff1661265a5760405162461bcd60e51b815260206004820152601c60248201527f4e4654206c61756e6368706164206973206e6f7420656e61626c6564000000006044820152606401610cf2565b33600090815260208052604090205460ff166126b15760405162461bcd60e51b8152602060048201526016602482015275151bdad95b9cc81b9bdd0818db185a5b5959081e595d60521b6044820152606401610cf2565b6027546126be3382613b2e565b3360009081526021602090815260408083205481518084018352818152858552602890935290832091519091556027805491926126fa836159ab565b91905055507f72102923c3d44433bd725cb2c744a4c92a536ad249b665dec9853a16ed66552560275460405161273291815260200190565b60405180910390a1505050565b6127476134e3565b6000612751613000565b90506000816003811115612767576127676156e8565b146127845760405162461bcd60e51b8152600401610cf290615948565b6001600160a01b0382166127d25760405162461bcd60e51b8152602060048201526015602482015274496e76616c696420746f6b656e206164647265737360581b6044820152606401610cf2565b600b80546001600160a01b0319166001600160a01b0384169081179091556040519081527f4dad0a7d97f7c80daf6bb308fc186f377387cce7ce977504a4f4d83ce7afd1a990602001611198565b6000610ca7826135f4565b6000612835613000565b9050600381600381111561284b5761284b6156e8565b146128685760405162461bcd60e51b8152600401610cf290615a58565b60065462010000900460ff166128905760405162461bcd60e51b8152600401610cf290615a85565b33600090815260208052604090205460ff16156128e15760405162461bcd60e51b815260206004820152600f60248201526e105b1c9958591e4818db185a5b5959608a1b6044820152606401610cf2565b60006128ec336124f2565b6040808201513360009081526020805291909120805460ff1916600117905560065491925090819062010000900460ff16612a7d5733600090815260196020526040812054600d54909190612942908390615a11565b600a549091506001600160a01b03166129c357604051600090339083908381818185875af1925050503d8060008114612997576040519150601f19603f3d011682016040523d82523d6000602084013e61299c565b606091505b50509050806129bd5760405162461bcd60e51b8152600401610cf290615abc565b50612a3a565b600a5460405163a9059cbb60e01b8152336004820152602481018390526001600160a01b039091169063a9059cbb906044016020604051808303816000875af1158015612a14573d6000803e3d6000fd5b505050506040513d601f19601f82011682018060405250810190612a389190615a28565b505b60408051600081526020810184905233917f9923b4306c6c030f2bdfbf156517d5983b87e15b96176da122cd4f2effa4ba7b910160405180910390a25050611c20565b82515b83602001518111612af557612a968360016159c4565b60008281526014602052604090205490935060ff1615612ad4576000818152601460205260409020805460ff19169055612ad18260016159c4565b91505b6000818152601a602052604081205580612aed816159ab565b915050612a80565b5033600090815260216020908152604080832084905560199091528120556000612b1f8284615a45565b600d54909150600090612b33908390615a11565b600a549091506001600160a01b0316612bb457604051600090339083908381818185875af1925050503d8060008114612b88576040519150601f19603f3d011682016040523d82523d6000602084013e612b8d565b606091505b5050905080612bae5760405162461bcd60e51b8152600401610cf290615abc565b50612c2b565b600a5460405163a9059cbb60e01b8152336004820152602481018390526001600160a01b039091169063a9059cbb906044016020604051808303816000875af1158015612c05573d6000803e3d6000fd5b505050506040513d601f19601f82011682018060405250810190612c299190615a28565b505b600c546000612c3a8286615a11565b90508015612cb957600b5460405163a9059cbb60e01b8152336004820152602481018390526001600160a01b039091169063a9059cbb906044016020604051808303816000875af1158015612c93573d6000803e3d6000fd5b505050506040513d601f19601f82011682018060405250810190612cb79190615a28565b505b604080518681526020810186905233917f9923b4306c6c030f2bdfbf156517d5983b87e15b96176da122cd4f2effa4ba7b910160405180910390a25050505050505050565b612d066134e3565b6006805463ff00000019166301000000179055565b60006001600160a01b038216612d47576040516322718ad960e21b815260006004820152602401610cf2565b506001600160a01b031660009081526003602052604090205490565b612d6b6134e3565b612d756000613b48565b565b612d9b60405180606001604052806000815260200160008152602001600081525090565b5060408051606081018252600754815260085460208201526009549181019190915290565b60065460609062010000900460ff16612deb5760405162461bcd60e51b8152600401610cf290615a85565b6001600160a01b038216600090815260186020908152604080832081516060810183528154808252600183015494820185905260029092015492810192909252909291612e389190615a45565b612e439060016159c4565b67ffffffffffffffff811115612e5b57612e5b6153f5565b604051908082528060200260200182016040528015612e84578160200160208202803683370190505b5082519091506000905b83602001518111612eee5760008181526014602052604090205460ff1615612edc5780838381518110612ec357612ec361597f565b602090810291909101015281612ed8816159ab565b9250505b80612ee6816159ab565b915050612e8e565b5060008167ffffffffffffffff811115612f0a57612f0a6153f5565b604051908082528060200260200182016040528015612f33578160200160208202803683370190505b50905060005b82811015612f8a57838181518110612f5357612f5361597f565b6020026020010151828281518110612f6d57612f6d61597f565b602090810291909101015280612f82816159ab565b915050612f39565b5095945050505050565b600d546000908103612fdf5760405162461bcd60e51b8152602060048201526014602482015273151a58dad95d081c1c9a58d9481b9bdd081cd95d60621b6044820152606401610cf2565b50600d5490565b606060018054610ffa906159d7565b6110b1338383613b9a565b604080516060810182526007548082526008546020830152600954928201929092526000914291908210156130385760009250505090565b806020015182101561304d5760019250505090565b80604001518210156130625760029250505090565b60039250505090565b613076848484611b9b565b611c2084848484613c39565b6000818152601a6020526040812054156130aa576000828152601a6020526040902054610ca7565b5090565b60606130b9826135f4565b5060006130d160408051602081019091526000815290565b905060008151116130f1576040518060200160405280600081525061311c565b806130fb84613a9b565b60405160200161310c929190615bbc565b6040516020818303038152906040525b9392505050565b61312b6134e3565b6002613135613000565b6003811115613146576131466156e8565b106131635760405162461bcd60e51b8152600401610cf290615b37565b61316e816001613d5b565b50565b6131796134e3565b4281116131985760405162461bcd60e51b8152600401610cf290615af3565b60085481106131e95760405162461bcd60e51b815260206004820152601f60248201527f4d757374206265206265666f72652077696e6e65722073656c656374696f6e006044820152606401610cf2565b60078190556040518181527f9f4130f810db3f8b8c3d3e9f0a1c82df83c082f10c2149d3b531773cd911e12090602001611ccf565b6132266134e3565b6002613230613000565b6003811115613241576132416156e8565b1061325e5760405162461bcd60e51b8152600401610cf290615b37565b600f54612d75906000613d5b565b6001600160a01b03918216600090815260056020908152604080832093909416825291909152205460ff1690565b602254158015906132ac575060235415155b6132ed5760405162461bcd60e51b8152602060048201526012602482015271141d589b1a58c81ad95e481b9bdd081cd95d60721b6044820152606401610cf2565b60006132f88261412f565b604080518082019182905291925061333a919060229060029082845b8154815260200190600101908083116133145750505050508261333561217b565b6141db565b6133765760405162461bcd60e51b815260206004820152600d60248201526c24b73b30b634b210383937b7b360991b6044820152606401610cf2565b61337f82615beb565b60258190556040519081527f79e2b3d818dbe45c83b10f543904e32c0a1b22fdd62e203f3d026d2e6548351e90602001611198565b6133bc6134e3565b6001600160a01b0381166133e657604051631e4fbdf760e01b815260006004820152602401610cf2565b61316e81613b48565b6001600160a01b038116600090815260186020908152604080832081516060810183528154815260018201549381018490526002909101549181019190915290820361343e5750600092915050565b8051602082015161344f9190615a45565b61311c9060016159c4565b60065460009062010000900460ff166134855760405162461bcd60e51b8152600401610cf290615a85565b6000613490836124f2565b80519091506000905b826020015181116134db5760008181526014602052604090205460ff16156134c957816134c5816159ab565b9250505b806134d3816159ab565b915050613499565b509392505050565b6026546001600160a01b03163314612d755760405163118cdaa760e01b8152336004820152602401610cf2565b6001600160a01b038316600090815260186020526040812060010154156135395750600061311c565b60125460009061354a9060016159c4565b90506000600161355a86846159c4565b6135649190615a45565b6040805160608101825284815260208082018481528284018981526001600160a01b038c81166000818152601886528781209651875593516001808801919091559251600290960195909555855180870187529485528484018c81529883526017909352939020915182546001600160a01b03191691161781559351938101939093556012555090509392505050565b6000818152600260205260408120546001600160a01b031680610ca757604051637e27328960e01b815260048101849052602401610cf2565b61181c83838360016142c1565b6001600160a01b0381166000908152601b602052604090205460ff161561316e5760405162461bcd60e51b815260206004820152602f60248201527f5573657220697320626c61636b6c697374656420616e64206d6179206e6f742060448201526e636f6e6669726d207469636b65747360881b6064820152608401610cf2565b6000818310156136d4576136cf8383615a45565b61311c565b60009392505050565b60405180606001604052808581526020018481526020018284106137015782613703565b835b90526001600160a01b039095166000908152601860209081526040918290208751815590870151600182015595015160029095019490945550505050565b600f54818111156137885760408051808201909152600180825260208201849052600e8054909190829060ff191682805b0217905550602082015181600101559050505050565b60408051808201909152600180825260208201839052600e8054909190829060ff19168280613772565b6000828152600260205260408120546001600160a01b03908116908316156137df576137df8184866143c7565b6001600160a01b0381161561381d576137fc6000856000806142c1565b6001600160a01b038116600090815260036020526040902080546000190190555b6001600160a01b0385161561384c576001600160a01b0385166000908152600360205260409020805460010190555b60008481526002602052604080822080546001600160a01b0319166001600160a01b0389811691821790925591518793918516917fddf252ad1be2c89b69c2b068fc378daa952ba7f163c4a11628f55a4df523b3ef91a4949350505050565b6001600160a01b03811660009081526019602052604090205480156110b157600d546000906138da9083615a11565b6001600160a01b03808516600090815260196020526040812055600a5491925016613972576000836001600160a01b03168260405160006040518083038185875af1925050503d806000811461394c576040519150601f19603f3d011682016040523d82523d6000602084013e613951565b606091505b5050905080611c205760405162461bcd60e51b8152600401610cf290615abc565b600a5460405163a9059cbb60e01b81526001600160a01b038581166004830152602482018490529091169063a9059cbb906044016020604051808303816000875af11580156139c5573d6000803e3d6000fd5b505050506040513d601f19601f82011682018060405250810190611c209190615a28565b6000826139f68184615a45565b613a019060016159c4565b60255460408051602081019290925281018690526060016040516020818303038152906040528051906020012060001c613a3b9190615c25565b613a4591906159c4565b90506000613a5282613082565b90506000613a5f85613082565b6000848152601a6020908152604080832084905588835280832086905585835260149091529020805460ff1916600117905590505b5050505050565b60606000613aa88361442b565b600101905060008167ffffffffffffffff811115613ac857613ac86153f5565b6040519080825280601f01601f191660200182016040528015613af2576020820181803683370190505b5090508181016020015b600019016f181899199a1a9b1b9c1cb0b131b232b360811b600a86061a8153600a8504945084613afc57509392505050565b6110b1828260405180602001604052806000815250614503565b602680546001600160a01b038381166001600160a01b0319831681179093556040519116919082907f8be0079c531659141344cd1fd0a4f28419497f9722a3daafe3b4186f6b6457e090600090a35050565b6001600160a01b038216613bcc57604051630b61174360e31b81526001600160a01b0383166004820152602401610cf2565b6001600160a01b03838116600081815260056020908152604080832094871680845294825291829020805460ff191686151590811790915591519182527f17307eab39ab6107e8899845ad3d59bd9653f200f220920489ca2b5937696c31910160405180910390a3505050565b6001600160a01b0383163b15611c2057604051630a85bd0160e11b81526001600160a01b0384169063150b7a0290613c7b903390889087908790600401615c39565b6020604051808303816000875af1925050508015613cb6575060408051601f3d908101601f19168201909252613cb391810190615c76565b60015b613d1f573d808015613ce4576040519150601f19603f3d011682016040523d82523d6000602084013e613ce9565b606091505b508051600003613d1757604051633250574960e11b81526001600160a01b0385166004820152602401610cf2565b805181602001fd5b6001600160e01b03198116630a85bd0160e11b14613a9457604051633250574960e11b81526001600160a01b0385166004820152602401610cf2565b613d636134e3565b6002613d6d613000565b6003811115613d7e57613d7e6156e8565b10613d9b5760405162461bcd60e51b8152600401610cf290615b37565b60105460ff161580613daa5750805b613df65760405162461bcd60e51b815260206004820152601860248201527f546f6b656e7320616c7265616479206465706f736974656400000000000000006044820152606401610cf2565b60105460ff1680613e05575080155b613e6e5760405162461bcd60e51b815260206004820152603460248201527f4465706f73697420696e697469616c206c61756e636870616420746f6b656e73604482015273206265666f726520616464696e6720657874726160601b6064820152608401610cf2565b80613ec457600f548214613ec45760405162461bcd60e51b815260206004820152601860248201527f496e636f7272656374206465706f73697420616d6f756e7400000000000000006044820152606401610cf2565b600c546000613ed38483615a11565b600b546040516370a0823160e01b81523060048201529192506001600160a01b03169060009082906370a0823190602401602060405180830381865afa158015613f21573d6000803e3d6000fd5b505050506040513d601f19601f82011682018060405250810190613f459190615c93565b6040516323b872dd60e01b8152336004820152306024820152604481018590529091506001600160a01b038316906323b872dd906064016020604051808303816000875af1158015613f9b573d6000803e3d6000fd5b505050506040513d601f19601f82011682018060405250810190613fbf9190615a28565b506040516370a0823160e01b81523060048201526000906001600160a01b038416906370a0823190602401602060405180830381865afa158015614007573d6000803e3d6000fd5b505050506040513d601f19601f8201168201806040525081019061402b9190615c93565b905060006140398383615a45565b60135490915061404a9082906159c4565b60135586156140d75760408051808201909152600e80546140a2929190829060ff16600181111561407d5761407d6156e8565b600181111561408e5761408e6156e8565b81526020016001820154815250508961451a565b8051600e8054909190829060ff1916600183818111156140c4576140c46156e8565b0217905550602082015181600101559050505b6010805460ff19166001179055604080518281526001600160a01b03861660208201527f2bd28610c69548fc2f921bbf218bc4633b6f88169a1e36cd5f2da07c110fee60910160405180910390a15050505050505050565b6141376153a4565b815160511461417e5760405162461bcd60e51b815260206004820152601360248201527226b0b63337b936b2b2102b292310383937b7b360691b6044820152606401610cf2565b6001820151602183015160318401516051850151600061419e858561456d565b6040805160808101825295865260208601919091526fffffffffffffffffffffffffffffffff909316928401929092526060830152509392505050565b60008060006141ea8685614584565b606087015160408801518951939550919350600092839261425892917f79be667ef9dcbbac55a06295ce870b07029bfcdb2dce28d959f2815b16f81798917f483ada7726a3c4655da4fbfc0e1108a8fd17b448a68554199c47d08ffb10d4b8918d60015b60200201516146e9565b606089015160408a01518a5193955091935060009283926142809291899189918e600161424e565b909250905060006142a487878c8460200201518d600160200201518989898961473f565b6040909a015160809a909a1c9099149a9950505050505050505050565b80806142d557506001600160a01b03821615155b156143975760006142e5846135f4565b90506001600160a01b038316158015906143115750826001600160a01b0316816001600160a01b031614155b80156143245750614322818461326c565b155b1561434d5760405163a9fbf51f60e01b81526001600160a01b0384166004820152602401610cf2565b81156143955783856001600160a01b0316826001600160a01b03167f8c5be1e5ebec7d5bd14f71427d1e84f3dd0314c0f7b2291e5b200ac8c7c3b92560405160405180910390a45b505b5050600090815260046020526040902080546001600160a01b0319166001600160a01b0392909216919091179055565b6143d28383836147fb565b61181c576001600160a01b03831661440057604051637e27328960e01b815260048101829052602401610cf2565b60405163177e802f60e01b81526001600160a01b038316600482015260248101829052604401610cf2565b60008072184f03e93ff9f4daa797ed6e38ed64bf6a1f0160401b831061446a5772184f03e93ff9f4daa797ed6e38ed64bf6a1f0160401b830492506040015b6d04ee2d6d415b85acef81000000008310614496576d04ee2d6d415b85acef8100000000830492506020015b662386f26fc1000083106144b457662386f26fc10000830492506010015b6305f5e10083106144cc576305f5e100830492506008015b61271083106144e057612710830492506004015b606483106144f2576064830492506002015b600a8310610ca75760010192915050565b61450d8383614861565b61181c6000848484613c39565b604080518082019091526000808252602082015260405180604001604052808460000151600181111561454f5761454f6156e8565b815260200183856020015161456491906159c4565b90529392505050565b600061311c8383600060076401000003d0196148c6565b6000808060fe60016145a38784602002015188600160200201516149fa565b866040516020016145b79493929190615cac565b604051602081830303815290604052905060005b6101008160ff161015614699576000600283836040516020016145ef929190615cff565b60408051601f198184030181529082905261460991615d31565b602060405180830381855afa158015614626573d6000803e3d6000fd5b5050506040513d601f19601f820116820180604052508101906146499190615c93565b905080600061465960028361456d565b90506146708282600060076401000003d019614a50565b156146835790955093506146e292505050565b505050808061469190615d4d565b9150506145cb565b5060405162461bcd60e51b815260206004820152601860248201527f4e6f2076616c696420706f696e742077617320666f756e6400000000000000006044820152606401610cf2565b9250929050565b6000806000806146fa8a8a8a614b09565b9150915060008061470c898989614b09565b915091506000806147288686868660006401000003d019614b2c565b90985096505050505050505b965096945050505050565b60008060fe60026147508c8c6149fa565b61475a8b8b6149fa565b6147648a8a6149fa565b61476e89896149fa565b60405160200161478396959493929190615d6c565b604051602081830303815290604052905060006002826040516147a69190615d31565b602060405180830381855afa1580156147c3573d6000803e3d6000fd5b5050506040513d601f19601f820116820180604052508101906147e69190615c93565b6040518190529b9a5050505050505050505050565b60006001600160a01b038316158015906148595750826001600160a01b0316846001600160a01b031614806148355750614835848461326c565b8061485957506000828152600460205260409020546001600160a01b038481169116145b949350505050565b6001600160a01b03821661488b57604051633250574960e11b815260006004820152602401610cf2565b6000614899838360006137b2565b90506001600160a01b0381161561181c576040516339e3563760e11b815260006004820152602401610cf2565b60008560ff16600214806148dd57508560ff166003145b6149435760405162461bcd60e51b815260206004820152603160248201527f456c6c697074696343757276653a696e6e76616c696420636f6d7072657373656044820152700c8408a8640e0ded2dce840e0e4caccd2f607b1b6064820152608401610cf2565b6000828061495357614953615c0f565b838061496157614961615c0f565b85858061497057614970615c0f565b888a0908848061498257614982615c0f565b858061499057614990615c0f565b898a0989090890506149b98160046149a98660016159c4565b6149b39190615ded565b85614b60565b9050600060026149cc60ff8a16846159c4565b6149d69190615c25565b156149ea576149e58285615a45565b6149ec565b815b925050505b95945050505050565b60606000614a09600284615c25565b614a149060026159c4565b6040516001600160f81b031960f883901b1660208201526021810186905290915060410160405160208183030381529060405291505092915050565b6000851580614a5f5750818610155b80614a68575084155b80614a735750818510155b15614a80575060006149f1565b60008280614a9057614a90615c0f565b868709905060008380614aa557614aa5615c0f565b888580614ab457614ab4615c0f565b8a8b090990508515614ae4578380614ace57614ace615c0f565b8480614adc57614adc615c0f565b878a09820890505b8415614afe578380614af857614af8615c0f565b85820890505b149695505050505050565b600080614b2085858560006401000003d019614c37565b91509150935093915050565b600080600080614b3d888887614c71565b91509150614b4f8a8a84848a8a614c8a565b935093505050965096945050505050565b600081600003614bb25760405162461bcd60e51b815260206004820152601e60248201527f456c6c697074696343757276653a206d6f64756c7573206973207a65726f00006044820152606401610cf2565b83600003614bc25750600061311c565b82600003614bd25750600161311c565b6001600160ff1b5b8015614c2e57838186161515870a85848509099150836002820486161515870a85848509099150836004820486161515870a85848509099150836008820486161515870a8584850909915060109004614bda565b50949350505050565b6000806000806000614c4e8a8a8a60018b8b614d11565b925092509250614c6083838389614d93565b945094505050509550959350505050565b6000808483614c808682615a45565b614b209190615c25565b6000806000806000888b03614cda578580614ca757614ca7615c0f565b888b08600003614cc05760008094509450505050614734565b614cce8b8b60018a8a614e02565b91945092509050614cf3565b614ceb8b8b60018c8c60018c614fa5565b919450925090505b614cff83838389614d93565b94509450505050965096945050505050565b600080600088600003614d2b575086915085905084614d87565b8860008060015b8315614d7e576001841615614d5857614d508383838f8f8f8e614fa5565b919450925090505b614d63600285615ded565b9350614d728c8c8c8c8c614e02565b919d509b509950614d32565b91955093509150505b96509650969350505050565b6000806000614da285856152d8565b905060008480614db457614db4615c0f565b828309905060008580614dc957614dc9615c0f565b828a09905060008680614dde57614dde615c0f565b8780614dec57614dec615c0f565b8486098a09919a91995090975050505050505050565b600080600085600003614e1c575086915085905084614f9a565b60008480614e2c57614e2c615c0f565b898a09905060008580614e4157614e41615c0f565b898a09905060008680614e5657614e56615c0f565b898a09905060008780614e6b57614e6b615c0f565b8880614e7957614e79615c0f565b848e09600409905060008880614e9157614e91615c0f565b8980614e9f57614e9f615c0f565b8a80614ead57614ead615c0f565b8586098c098a80614ec057614ec0615c0f565b876003090890508880614ed557614ed5615c0f565b8980614ee357614ee3615c0f565b838408614ef0908b615a45565b8a80614efe57614efe615c0f565b8384090894508880614f1257614f12615c0f565b8980614f2057614f20615c0f565b8a80614f2e57614f2e615c0f565b868709600809614f3e908b615a45565b8a80614f4c57614f4c615c0f565b8b80614f5a57614f5a615c0f565b614f64898e615a45565b860884090893508880614f7957614f79615c0f565b8980614f8757614f87615c0f565b8c8e096002099497509295509293505050505b955095509592505050565b6000808089158015614fb5575088155b15614fc75750859150849050836152cb565b86158015614fd3575085155b15614fe55750889150879050866152cb565b614fed6153a4565b8480614ffb57614ffb615c0f565b898a098152848061500e5761500e615c0f565b81518a096020820152848061502557615025615c0f565b8687096040820152848061503b5761503b615c0f565b604082015187096060820152604080516080810190915280868061506157615061615c0f565b60408401518e098152602001868061507b5761507b615c0f565b60608401518d098152602001868061509557615095615c0f565b83518b09815260200186806150ac576150ac615c0f565b60208401518a099052604081015181519192501415806150d457506060810151602082015114155b6151205760405162461bcd60e51b815260206004820152601e60248201527f557365206a6163446f75626c652066756e6374696f6e20696e737465616400006044820152606401610cf2565b6151286153a4565b858061513657615136615c0f565b82516151429088615a45565b6040840151088152858061515857615158615c0f565b60208301516151679088615a45565b6060840151086020820152858061518057615180615c0f565b815180096040820152858061519757615197615c0f565b81516040830151096060820152600086806151b4576151b4615c0f565b60608301516151c39089615a45565b88806151d1576151d1615c0f565b6020850151800908905086806151e9576151e9615c0f565b87806151f7576151f7615c0f565b888061520557615205615c0f565b604085015186510960020961521a9089615a45565b820890506000878061522e5761522e615c0f565b888061523c5761523c615c0f565b615246848b615a45565b8a8061525457615254615c0f565b6040870151885109086020850151099050878061527357615273615c0f565b888061528157615281615c0f565b6060850151602087015109615296908a615a45565b82089050600088806152aa576152aa615c0f565b89806152b8576152b8615c0f565b8b8f098551099297509095509093505050505b9750975097945050505050565b600082158015906152e95750818314155b80156152f457508115155b6153315760405162461bcd60e51b815260206004820152600e60248201526d24b73b30b634b210373ab6b132b960911b6044820152606401610cf2565b6000600183825b8615615399576153488783615ded565b905082868061535957615359615c0f565b878061536757615367615c0f565b8584096153749089615a45565b86089094509250866153868183615a11565b6153909084615a45565b97509150615338565b509195945050505050565b60405180608001604052806004906020820280368337509192915050565b6001600160e01b03198116811461316e57600080fd5b6000602082840312156153ea57600080fd5b813561311c816153c2565b634e487b7160e01b600052604160045260246000fd5b604051601f8201601f1916810167ffffffffffffffff81118282101715615434576154346153f5565b604052919050565b600067ffffffffffffffff821115615456576154566153f5565b5060051b60200190565b80356001600160a01b038116811461547757600080fd5b919050565b600082601f83011261548d57600080fd5b813560206154a261549d8361543c565b61540b565b82815260059290921b840181019181810190868411156154c157600080fd5b8286015b848110156154e3576154d681615460565b83529183019183016154c5565b509695505050505050565b600082601f8301126154ff57600080fd5b8135602061550f61549d8361543c565b82815260059290921b8401810191818101908684111561552e57600080fd5b8286015b848110156154e35780358352918301918301615532565b60008060006060848603121561555e57600080fd5b833567ffffffffffffffff8082111561557657600080fd5b6155828783880161547c565b9450602086013591508082111561559857600080fd5b6155a4878388016154ee565b935060408601359150808211156155ba57600080fd5b506155c7868287016154ee565b9150509250925092565b60005b838110156155ec5781810151838201526020016155d4565b50506000910152565b6000815180845261560d8160208601602086016155d1565b601f01601f19169290920160200192915050565b60208152600061311c60208301846155f5565b60006020828403121561564657600080fd5b5035919050565b6000806040838503121561566057600080fd5b61566983615460565b946020939093013593505050565b60008060006060848603121561568c57600080fd5b61569584615460565b92506156a360208501615460565b9150604084013590509250925092565b6000602082840312156156c557600080fd5b813567ffffffffffffffff8111156156dc57600080fd5b6148598482850161547c565b634e487b7160e01b600052602160045260246000fd5b8151604082019060028110615715576157156156e8565b808352506020830151602083015292915050565b60006020828403121561573b57600080fd5b61311c82615460565b81518152602080830151908201526040808301519082015260608101610ca7565b6020808252825182820181905260009190848201906040850190845b8181101561579d57835183529284019291840191600101615781565b50909695505050505050565b801515811461316e57600080fd5b600080604083850312156157ca57600080fd5b6157d383615460565b915060208301356157e3816157a9565b809150509250929050565b6020810160048310615802576158026156e8565b91905290565b600082601f83011261581957600080fd5b813567ffffffffffffffff811115615833576158336153f5565b615846601f8201601f191660200161540b565b81815284602083860101111561585b57600080fd5b816020850160208301376000918101602001919091529392505050565b6000806000806080858703121561588e57600080fd5b61589785615460565b93506158a560208601615460565b925060408501359150606085013567ffffffffffffffff8111156158c857600080fd5b6158d487828801615808565b91505092959194509250565b600080604083850312156158f357600080fd5b6158fc83615460565b915061590a60208401615460565b90509250929050565b60006020828403121561592557600080fd5b813567ffffffffffffffff81111561593c57600080fd5b61485984828501615808565b6020808252601d908201527f416464207469636b65747320706572696f642068617320706173736564000000604082015260600190565b634e487b7160e01b600052603260045260246000fd5b634e487b7160e01b600052601160045260246000fd5b6000600182016159bd576159bd615995565b5060010190565b80820180821115610ca757610ca7615995565b600181811c908216806159eb57607f821691505b602082108103615a0b57634e487b7160e01b600052602260045260246000fd5b50919050565b8082028115828204841417610ca757610ca7615995565b600060208284031215615a3a57600080fd5b815161311c816157a9565b81810381811115610ca757610ca7615995565b602080825260139082015272139bdd081a5b8818db185a5b481c195c9a5bd9606a1b604082015260600190565b60208082526018908201527f57696e6e657273206e6f742073656c6563746564207965740000000000000000604082015260600190565b6020808252601a908201527f4661696c656420746f2073656e64206e617469766520636f696e000000000000604082015260600190565b60208082526024908201527f4e65772073746172742074696d65206d75737420626520696e207468652066756040820152637475726560e01b606082015260800190565b60208082526024908201527f57696e6e65722073656c656374696f6e2068617320616c7265616479207374616040820152631c9d195960e21b606082015260800190565b6020808252825182820181905260009190848201906040850190845b8181101561579d5783516001600160a01b031683529284019291840191600101615b97565b60008351615bce8184602088016155d1565b835190830190615be28183602088016155d1565b01949350505050565b80516020808301519190811015615a0b5760001960209190910360031b1b16919050565b634e487b7160e01b600052601260045260246000fd5b600082615c3457615c34615c0f565b500690565b6001600160a01b0385811682528416602082015260408101839052608060608201819052600090615c6c908301846155f5565b9695505050505050565b600060208284031215615c8857600080fd5b815161311c816153c2565b600060208284031215615ca557600080fd5b5051919050565b600060ff60f81b808760f81b168352808660f81b166001840152508351615cda8160028501602088016155d1565b835190830190615cf18160028401602088016155d1565b016002019695505050505050565b60008351615d118184602088016155d1565b60f89390931b6001600160f81b0319169190920190815260010192915050565b60008251615d438184602087016155d1565b9190910192915050565b600060ff821660ff8103615d6357615d63615995565b60010192915050565b600060ff60f81b808960f81b168352808860f81b166001840152508551615d9a816002850160208a016155d1565b855190830190615db1816002840160208a016155d1565b8551910190615dc78160028401602089016155d1565b8451910190615ddd8160028401602088016155d1565b0160020198975050505050505050565b600082615dfc57615dfc615c0f565b50049056fea26469706673582212202e8316ea70633b5296a95180fcc689f1bb5b47e40b74876bda974d434c51086a64736f6c63430008140033",
  "devdoc": {
    "errors": {
      "ERC721IncorrectOwner(address,uint256,address)": [
        {
          "details": "Indicates an error related to the ownership over a particular token. Used in transfers.",
          "params": {
            "owner": "Address of the current owner of a token.",
            "sender": "Address whose tokens are being transferred.",
            "tokenId": "Identifier number of a token."
          }
        }
      ],
      "ERC721InsufficientApproval(address,uint256)": [
        {
          "details": "Indicates a failure with the `operator`s approval. Used in transfers.",
          "params": {
            "operator": "Address that may be allowed to operate on tokens without being their owner.",
            "tokenId": "Identifier number of a token."
          }
        }
      ],
      "ERC721InvalidApprover(address)": [
        {
          "details": "Indicates a failure with the `approver` of a token to be approved. Used in approvals.",
          "params": {
            "approver": "Address initiating an approval operation."
          }
        }
      ],
      "ERC721InvalidOperator(address)": [
        {
          "details": "Indicates a failure with the `operator` to be approved. Used in approvals.",
          "params": {
            "operator": "Address that may be allowed to operate on tokens without being their owner."
          }
        }
      ],
      "ERC721InvalidOwner(address)": [
        {
          "details": "Indicates that an address can't be an owner. For example, `address(0)` is a forbidden owner in EIP-20. Used in balance queries.",
          "params": {
            "owner": "Address of the current owner of a token."
          }
        }
      ],
      "ERC721InvalidReceiver(address)": [
        {
          "details": "Indicates a failure with the token `receiver`. Used in transfers.",
          "params": {
            "receiver": "Address to which tokens are being transferred."
          }
        }
      ],
      "ERC721InvalidSender(address)": [
        {
          "details": "Indicates a failure with the token `sender`. Used in transfers.",
          "params": {
            "sender": "Address whose tokens are being transferred."
          }
        }
      ],
      "ERC721NonexistentToken(uint256)": [
        {
          "details": "Indicates a `tokenId` whose `owner` is the zero address.",
          "params": {
            "tokenId": "Identifier number of a token."
          }
        }
      ],
      "OwnableInvalidOwner(address)": [
        {
          "details": "The owner is not a valid owner account. (eg. `address(0)`)"
        }
      ],
      "OwnableUnauthorizedAccount(address)": [
        {
          "details": "The caller account is not authorized to perform an operation."
        }
      ]
    },
    "events": {
      "Approval(address,address,uint256)": {
        "details": "Emitted when `owner` enables `approved` to manage the `tokenId` token."
      },
      "ApprovalForAll(address,address,bool)": {
        "details": "Emitted when `owner` enables or disables (`approved`) `operator` to manage all of its assets."
      },
      "Transfer(address,address,uint256)": {
        "details": "Emitted when `tokenId` token is transferred from `from` to `to`."
      }
    },
    "kind": "dev",
    "methods": {
      "approve(address,uint256)": {
        "details": "See {IERC721-approve}."
      },
      "balanceOf(address)": {
        "details": "See {IERC721-balanceOf}."
      },
      "getApproved(uint256)": {
        "details": "See {IERC721-getApproved}."
      },
      "isApprovedForAll(address,address)": {
        "details": "See {IERC721-isApprovedForAll}."
      },
      "name()": {
        "details": "See {IERC721Metadata-name}."
      },
      "owner()": {
        "details": "Returns the address of the current owner."
      },
      "ownerOf(uint256)": {
        "details": "See {IERC721-ownerOf}."
      },
      "renounceOwnership()": {
        "details": "Leaves the contract without owner. It will not be possible to call `onlyOwner` functions. Can only be called by the current owner. NOTE: Renouncing ownership will leave the contract without an owner, thereby disabling any functionality that is only available to the owner."
      },
      "safeTransferFrom(address,address,uint256)": {
        "details": "See {IERC721-safeTransferFrom}."
      },
      "safeTransferFrom(address,address,uint256,bytes)": {
        "details": "See {IERC721-safeTransferFrom}."
      },
      "setApprovalForAll(address,bool)": {
        "details": "See {IERC721-setApprovalForAll}."
      },
      "supportsInterface(bytes4)": {
        "details": "See {IERC165-supportsInterface}."
      },
      "symbol()": {
        "details": "See {IERC721Metadata-symbol}."
      },
      "tokenURI(uint256)": {
        "details": "See {IERC721Metadata-tokenURI}."
      },
      "transferFrom(address,address,uint256)": {
        "details": "See {IERC721-transferFrom}."
      },
      "transferOwnership(address)": {
        "details": "Transfers ownership of the contract to a new account (`newOwner`). Can only be called by the current owner."
      }
    },
    "version": 1
  },
  "userdoc": {
    "kind": "user",
    "methods": {},
    "version": 1
  },
  "storageLayout": {
    "storage": [
      {
        "astId": 1262,
        "contract": "contracts/Launchpad.sol:Launchpad",
        "label": "_name",
        "offset": 0,
        "slot": "0",
        "type": "t_string_storage"
      },
      {
        "astId": 1264,
        "contract": "contracts/Launchpad.sol:Launchpad",
        "label": "_symbol",
        "offset": 0,
        "slot": "1",
        "type": "t_string_storage"
      },
      {
        "astId": 1268,
        "contract": "contracts/Launchpad.sol:Launchpad",
        "label": "_owners",
        "offset": 0,
        "slot": "2",
        "type": "t_mapping(t_uint256,t_address)"
      },
      {
        "astId": 1272,
        "contract": "contracts/Launchpad.sol:Launchpad",
        "label": "_balances",
        "offset": 0,
        "slot": "3",
        "type": "t_mapping(t_address,t_uint256)"
      },
      {
        "astId": 1276,
        "contract": "contracts/Launchpad.sol:Launchpad",
        "label": "_tokenApprovals",
        "offset": 0,
        "slot": "4",
        "type": "t_mapping(t_uint256,t_address)"
      },
      {
        "astId": 1282,
        "contract": "contracts/Launchpad.sol:Launchpad",
        "label": "_operatorApprovals",
        "offset": 0,
        "slot": "5",
        "type": "t_mapping(t_address,t_mapping(t_address,t_bool))"
      },
      {
        "astId": 6120,
        "contract": "contracts/Launchpad.sol:Launchpad",
        "label": "state",
        "offset": 0,
        "slot": "6",
        "type": "t_struct(LaunchpadState)6117_storage"
      },
      {
        "astId": 8,
        "contract": "contracts/Launchpad.sol:Launchpad",
        "label": "_owner",
        "offset": 0,
        "slot": "38",
        "type": "t_address"
      },
      {
        "astId": 6167,
        "contract": "contracts/Launchpad.sol:Launchpad",
        "label": "tokenCounter",
        "offset": 0,
        "slot": "39",
        "type": "t_uint256"
      },
      {
        "astId": 6172,
        "contract": "contracts/Launchpad.sol:Launchpad",
        "label": "tokenIdToState",
        "offset": 0,
        "slot": "40",
        "type": "t_mapping(t_uint256,t_struct(LaunchpadNftMetadata)6165_storage)"
      },
      {
        "astId": 6176,
        "contract": "contracts/Launchpad.sol:Launchpad",
        "label": "addressToTokenId",
        "offset": 0,
        "slot": "41",
        "type": "t_mapping(t_address,t_uint256)"
      }
    ],
    "types": {
      "t_address": {
        "encoding": "inplace",
        "label": "address",
        "numberOfBytes": "20"
      },
      "t_array(t_uint256)2_storage": {
        "base": "t_uint256",
        "encoding": "inplace",
        "label": "uint256[2]",
        "numberOfBytes": "64"
      },
      "t_bool": {
        "encoding": "inplace",
        "label": "bool",
        "numberOfBytes": "1"
      },
      "t_bytes32": {
        "encoding": "inplace",
        "label": "bytes32",
        "numberOfBytes": "32"
      },
      "t_enum(NumberOfWinningTicketsType)6015": {
        "encoding": "inplace",
        "label": "enum LaunchpadStorage.NumberOfWinningTicketsType",
        "numberOfBytes": "1"
      },
      "t_mapping(t_address,t_bool)": {
        "encoding": "mapping",
        "key": "t_address",
        "label": "mapping(address => bool)",
        "numberOfBytes": "32",
        "value": "t_bool"
      },
      "t_mapping(t_address,t_mapping(t_address,t_bool))": {
        "encoding": "mapping",
        "key": "t_address",
        "label": "mapping(address => mapping(address => bool))",
        "numberOfBytes": "32",
        "value": "t_mapping(t_address,t_bool)"
      },
      "t_mapping(t_address,t_struct(TicketRange)6052_storage)": {
        "encoding": "mapping",
        "key": "t_address",
        "label": "mapping(address => struct LaunchpadStorage.TicketRange)",
        "numberOfBytes": "32",
        "value": "t_struct(TicketRange)6052_storage"
      },
      "t_mapping(t_address,t_uint256)": {
        "encoding": "mapping",
        "key": "t_address",
        "label": "mapping(address => uint256)",
        "numberOfBytes": "32",
        "value": "t_uint256"
      },
      "t_mapping(t_uint256,t_address)": {
        "encoding": "mapping",
        "key": "t_uint256",
        "label": "mapping(uint256 => address)",
        "numberOfBytes": "32",
        "value": "t_address"
      },
      "t_mapping(t_uint256,t_bool)": {
        "encoding": "mapping",
        "key": "t_uint256",
        "label": "mapping(uint256 => bool)",
        "numberOfBytes": "32",
        "value": "t_bool"
      },
      "t_mapping(t_uint256,t_struct(LaunchpadNftMetadata)6165_storage)": {
        "encoding": "mapping",
        "key": "t_uint256",
        "label": "mapping(uint256 => struct NFT.LaunchpadNftMetadata)",
        "numberOfBytes": "32",
        "value": "t_struct(LaunchpadNftMetadata)6165_storage"
      },
      "t_mapping(t_uint256,t_struct(TicketBatch)6045_storage)": {
        "encoding": "mapping",
        "key": "t_uint256",
        "label": "mapping(uint256 => struct LaunchpadStorage.TicketBatch)",
        "numberOfBytes": "32",
        "value": "t_struct(TicketBatch)6045_storage"
      },
      "t_mapping(t_uint256,t_uint256)": {
        "encoding": "mapping",
        "key": "t_uint256",
        "label": "mapping(uint256 => uint256)",
        "numberOfBytes": "32",
        "value": "t_uint256"
      },
      "t_string_storage": {
        "encoding": "bytes",
        "label": "string",
        "numberOfBytes": "32"
      },
      "t_struct(ConfigModule)6040_storage": {
        "encoding": "inplace",
        "label": "struct LaunchpadStorage.ConfigModule",
        "members": [
          {
            "astId": 6024,
            "contract": "contracts/Launchpad.sol:Launchpad",
            "label": "timeline",
            "offset": 0,
            "slot": "0",
            "type": "t_struct(Timeline)6012_storage"
          },
          {
            "astId": 6026,
            "contract": "contracts/Launchpad.sol:Launchpad",
            "label": "ticketToken",
            "offset": 0,
            "slot": "3",
            "type": "t_address"
          },
          {
            "astId": 6028,
            "contract": "contracts/Launchpad.sol:Launchpad",
            "label": "launchpadToken",
            "offset": 0,
            "slot": "4",
            "type": "t_address"
          },
          {
            "astId": 6030,
            "contract": "contracts/Launchpad.sol:Launchpad",
            "label": "launchpadTokensPerWinningTicket",
            "offset": 0,
            "slot": "5",
            "type": "t_uint256"
          },
          {
            "astId": 6032,
            "contract": "contracts/Launchpad.sol:Launchpad",
            "label": "ticketPrice",
            "offset": 0,
            "slot": "6",
            "type": "t_uint256"
          },
          {
            "astId": 6035,
            "contract": "contracts/Launchpad.sol:Launchpad",
            "label": "numberOfWinningTickets",
            "offset": 0,
            "slot": "7",
            "type": "t_struct(NumberOfWinningTickets)6021_storage"
          },
          {
            "astId": 6037,
            "contract": "contracts/Launchpad.sol:Launchpad",
            "label": "launchpadTokensDeposited",
            "offset": 0,
            "slot": "9",
            "type": "t_bool"
          },
          {
            "astId": 6039,
            "contract": "contracts/Launchpad.sol:Launchpad",
            "label": "claimableTicketPayment",
            "offset": 0,
            "slot": "10",
            "type": "t_uint256"
          }
        ],
        "numberOfBytes": "352"
      },
      "t_struct(Flags)6005_storage": {
        "encoding": "inplace",
        "label": "struct LaunchpadStorage.Flags",
        "members": [
          {
            "astId": 5998,
            "contract": "contracts/Launchpad.sol:Launchpad",
            "label": "hasWinnerSelectionProcessStarted",
            "offset": 0,
            "slot": "0",
            "type": "t_bool"
          },
          {
            "astId": 6000,
            "contract": "contracts/Launchpad.sol:Launchpad",
            "label": "wereTicketsFiltered",
            "offset": 1,
            "slot": "0",
            "type": "t_bool"
          },
          {
            "astId": 6002,
            "contract": "contracts/Launchpad.sol:Launchpad",
            "label": "winnersSelected",
            "offset": 2,
            "slot": "0",
            "type": "t_bool"
          },
          {
            "astId": 6004,
            "contract": "contracts/Launchpad.sol:Launchpad",
            "label": "launchpadNfts",
            "offset": 3,
            "slot": "0",
            "type": "t_bool"
          }
        ],
        "numberOfBytes": "32"
      },
      "t_struct(LaunchpadNftMetadata)6165_storage": {
        "encoding": "inplace",
        "label": "struct NFT.LaunchpadNftMetadata",
        "members": [
          {
            "astId": 6164,
            "contract": "contracts/Launchpad.sol:Launchpad",
            "label": "numberOfWinningTickets",
            "offset": 0,
            "slot": "0",
            "type": "t_uint256"
          }
        ],
        "numberOfBytes": "32"
      },
      "t_struct(LaunchpadState)6117_storage": {
        "encoding": "inplace",
        "label": "struct LaunchpadStorage.LaunchpadState",
        "members": [
          {
            "astId": 6055,
            "contract": "contracts/Launchpad.sol:Launchpad",
            "label": "flags",
            "offset": 0,
            "slot": "0",
            "type": "t_struct(Flags)6005_storage"
          },
          {
            "astId": 6058,
            "contract": "contracts/Launchpad.sol:Launchpad",
            "label": "configuration",
            "offset": 0,
            "slot": "1",
            "type": "t_struct(ConfigModule)6040_storage"
          },
          {
            "astId": 6060,
            "contract": "contracts/Launchpad.sol:Launchpad",
            "label": "lastTicketId",
            "offset": 0,
            "slot": "12",
            "type": "t_uint256"
          },
          {
            "astId": 6062,
            "contract": "contracts/Launchpad.sol:Launchpad",
            "label": "totalLaunchpadTokens",
            "offset": 0,
            "slot": "13",
            "type": "t_uint256"
          },
          {
            "astId": 6066,
            "contract": "contracts/Launchpad.sol:Launchpad",
            "label": "winningTickets",
            "offset": 0,
            "slot": "14",
            "type": "t_mapping(t_uint256,t_bool)"
          },
          {
            "astId": 6068,
            "contract": "contracts/Launchpad.sol:Launchpad",
            "label": "confirmedGuaranteedTickets",
            "offset": 0,
            "slot": "15",
            "type": "t_uint256"
          },
          {
            "astId": 6070,
            "contract": "contracts/Launchpad.sol:Launchpad",
            "label": "ownerPaymentClaimed",
            "offset": 0,
            "slot": "16",
            "type": "t_bool"
          },
          {
            "astId": 6075,
            "contract": "contracts/Launchpad.sol:Launchpad",
            "label": "ticketBatch",
            "offset": 0,
            "slot": "17",
            "type": "t_mapping(t_uint256,t_struct(TicketBatch)6045_storage)"
          },
          {
            "astId": 6080,
            "contract": "contracts/Launchpad.sol:Launchpad",
            "label": "ticketRangeForAddress",
            "offset": 0,
            "slot": "18",
            "type": "t_mapping(t_address,t_struct(TicketRange)6052_storage)"
          },
          {
            "astId": 6084,
            "contract": "contracts/Launchpad.sol:Launchpad",
            "label": "confirmedTicketsForAddress",
            "offset": 0,
            "slot": "19",
            "type": "t_mapping(t_address,t_uint256)"
          },
          {
            "astId": 6088,
            "contract": "contracts/Launchpad.sol:Launchpad",
            "label": "ticketPositionForTicketId",
            "offset": 0,
            "slot": "20",
            "type": "t_mapping(t_uint256,t_uint256)"
          },
          {
            "astId": 6092,
            "contract": "contracts/Launchpad.sol:Launchpad",
            "label": "blacklist",
            "offset": 0,
            "slot": "21",
            "type": "t_mapping(t_address,t_bool)"
          },
          {
            "astId": 6094,
            "contract": "contracts/Launchpad.sol:Launchpad",
            "label": "totalGuaranteedWinningTickets",
            "offset": 0,
            "slot": "22",
            "type": "t_uint256"
          },
          {
            "astId": 6096,
            "contract": "contracts/Launchpad.sol:Launchpad",
            "label": "selectWinnersProgress",
            "offset": 0,
            "slot": "23",
            "type": "t_uint256"
          },
          {
            "astId": 6098,
            "contract": "contracts/Launchpad.sol:Launchpad",
            "label": "filterTicketsProgressStart",
            "offset": 0,
            "slot": "24",
            "type": "t_uint256"
          },
          {
            "astId": 6100,
            "contract": "contracts/Launchpad.sol:Launchpad",
            "label": "filterTicketsProgressEnd",
            "offset": 0,
            "slot": "25",
            "type": "t_uint256"
          },
          {
            "astId": 6104,
            "contract": "contracts/Launchpad.sol:Launchpad",
            "label": "claimList",
            "offset": 0,
            "slot": "26",
            "type": "t_mapping(t_address,t_bool)"
          },
          {
            "astId": 6108,
            "contract": "contracts/Launchpad.sol:Launchpad",
            "label": "numberOfWinningTicketsPerUser",
            "offset": 0,
            "slot": "27",
            "type": "t_mapping(t_address,t_uint256)"
          },
          {
            "astId": 6112,
            "contract": "contracts/Launchpad.sol:Launchpad",
            "label": "publicKey",
            "offset": 0,
            "slot": "28",
            "type": "t_array(t_uint256)2_storage"
          },
          {
            "astId": 6114,
            "contract": "contracts/Launchpad.sol:Launchpad",
            "label": "seed",
            "offset": 0,
            "slot": "30",
            "type": "t_bytes32"
          },
          {
            "astId": 6116,
            "contract": "contracts/Launchpad.sol:Launchpad",
            "label": "proof",
            "offset": 0,
            "slot": "31",
            "type": "t_uint256"
          }
        ],
        "numberOfBytes": "1024"
      },
      "t_struct(NumberOfWinningTickets)6021_storage": {
        "encoding": "inplace",
        "label": "struct LaunchpadStorage.NumberOfWinningTickets",
        "members": [
          {
            "astId": 6018,
            "contract": "contracts/Launchpad.sol:Launchpad",
            "label": "ticketType",
            "offset": 0,
            "slot": "0",
            "type": "t_enum(NumberOfWinningTicketsType)6015"
          },
          {
            "astId": 6020,
            "contract": "contracts/Launchpad.sol:Launchpad",
            "label": "value",
            "offset": 0,
            "slot": "1",
            "type": "t_uint256"
          }
        ],
        "numberOfBytes": "64"
      },
      "t_struct(TicketBatch)6045_storage": {
        "encoding": "inplace",
        "label": "struct LaunchpadStorage.TicketBatch",
        "members": [
          {
            "astId": 6042,
            "contract": "contracts/Launchpad.sol:Launchpad",
            "label": "addr",
            "offset": 0,
            "slot": "0",
            "type": "t_address"
          },
          {
            "astId": 6044,
            "contract": "contracts/Launchpad.sol:Launchpad",
            "label": "nrTickets",
            "offset": 0,
            "slot": "1",
            "type": "t_uint256"
          }
        ],
        "numberOfBytes": "64"
      },
      "t_struct(TicketRange)6052_storage": {
        "encoding": "inplace",
        "label": "struct LaunchpadStorage.TicketRange",
        "members": [
          {
            "astId": 6047,
            "contract": "contracts/Launchpad.sol:Launchpad",
            "label": "firstId",
            "offset": 0,
            "slot": "0",
            "type": "t_uint256"
          },
          {
            "astId": 6049,
            "contract": "contracts/Launchpad.sol:Launchpad",
            "label": "lastId",
            "offset": 0,
            "slot": "1",
            "type": "t_uint256"
          },
          {
            "astId": 6051,
            "contract": "contracts/Launchpad.sol:Launchpad",
            "label": "guaranteedWinners",
            "offset": 0,
            "slot": "2",
            "type": "t_uint256"
          }
        ],
        "numberOfBytes": "96"
      },
      "t_struct(Timeline)6012_storage": {
        "encoding": "inplace",
        "label": "struct LaunchpadStorage.Timeline",
        "members": [
          {
            "astId": 6007,
            "contract": "contracts/Launchpad.sol:Launchpad",
            "label": "confirmationPeriodStartTime",
            "offset": 0,
            "slot": "0",
            "type": "t_uint256"
          },
          {
            "astId": 6009,
            "contract": "contracts/Launchpad.sol:Launchpad",
            "label": "winnerSelectionStartTime",
            "offset": 0,
            "slot": "1",
            "type": "t_uint256"
          },
          {
            "astId": 6011,
            "contract": "contracts/Launchpad.sol:Launchpad",
            "label": "claimStartTime",
            "offset": 0,
            "slot": "2",
            "type": "t_uint256"
          }
        ],
        "numberOfBytes": "96"
      },
      "t_uint256": {
        "encoding": "inplace",
        "label": "uint256",
        "numberOfBytes": "32"
      }
    }
  }
}